{"contracts/Game.sol":{"DeckUtils":{"abi":[{"inputs":[{"internalType":"bytes","name":"randomBytes","type":"bytes"}],"name":"seedIntoCardIndices","outputs":[{"internalType":"bytes","name":"","type":"bytes"}],"stateMutability":"pure","type":"function"}],"evm":{"bytecode":{"linkReferences":{},"object":"610904610053600b82828239805160001a607314610046577f4e487b7100000000000000000000000000000000000000000000000000000000600052600060045260246000fd5b30600052607381538281f3fe73000000000000000000000000000000000000000030146080604052600436106100355760003560e01c8063b153b56e1461003a575b600080fd5b610054600480360381019061004f9190610544565b61006a565b6040516100619190610615565b60405180910390f35b60606100768251610268565b61007f82610301565b603460ff168251146100c6576040517f08c379a00000000000000000000000000000000000000000000000000000000081526004016100bd90610694565b60405180910390fd5b6000603460ff1667ffffffffffffffff8111156100e6576100e5610419565b5b6040519080825280601f01601f1916602001820160405280156101185781602001600182028036833780820191505090505b509050600080600090505b8451811015610260576000858281518110610141576101406106b4565b5b602001015160f81c60f81b60f81c90505b6001156102085760008060d01b8260ff16600160001b79ffffffffffffffffffffffffffffffffffffffffffffffffffff1916901b851679ffffffffffffffffffffffffffffffffffffffffffffffffffff19161415905080156101d05760346001836101bf919061071f565b6101c99190610785565b9150610202565b8160ff16600160001b79ffffffffffffffffffffffffffffffffffffffffffffffffffff1916901b8417935050610208565b50610152565b8060f81b84838151811061021f5761021e6106b4565b5b60200101907effffffffffffffffffffffffffffffffffffffffffffffffffffffffffffff1916908160001a9053505080610259906107c0565b9050610123565b505050919050565b6102fe8160405160240161027c9190610818565b6040516020818303038152906040527ff82c50f1000000000000000000000000000000000000000000000000000000007bffffffffffffffffffffffffffffffffffffffffffffffffffffffff19166020820180517bffffffffffffffffffffffffffffffffffffffffffffffffffffffff838183161783525050505061039a565b50565b61039781604051602401610315919061087d565b6040516020818303038152906040527f0be77f56000000000000000000000000000000000000000000000000000000007bffffffffffffffffffffffffffffffffffffffffffffffffffffffff19166020820180517bffffffffffffffffffffffffffffffffffffffffffffffffffffffff838183161783525050505061039a565b50565b6103b1816103a96103b46103d5565b63ffffffff16565b50565b60006a636f6e736f6c652e6c6f679050600080835160208501845afa505050565b6103e0819050919050565b6103e861089f565b565b6000604051905090565b600080fd5b600080fd5b600080fd5b600080fd5b6000601f19601f8301169050919050565b7f4e487b7100000000000000000000000000000000000000000000000000000000600052604160045260246000fd5b61045182610408565b810181811067ffffffffffffffff821117156104705761046f610419565b5b80604052505050565b60006104836103ea565b905061048f8282610448565b919050565b600067ffffffffffffffff8211156104af576104ae610419565b5b6104b882610408565b9050602081019050919050565b82818337600083830152505050565b60006104e76104e284610494565b610479565b90508281526020810184848401111561050357610502610403565b5b61050e8482856104c5565b509392505050565b600082601f83011261052b5761052a6103fe565b5b813561053b8482602086016104d4565b91505092915050565b60006020828403121561055a576105596103f4565b5b600082013567ffffffffffffffff811115610578576105776103f9565b5b61058484828501610516565b91505092915050565b600081519050919050565b600082825260208201905092915050565b60005b838110156105c75780820151818401526020810190506105ac565b838111156105d6576000848401525b50505050565b60006105e78261058d565b6105f18185610598565b93506106018185602086016105a9565b61060a81610408565b840191505092915050565b6000602082019050818103600083015261062f81846105dc565b905092915050565b600082825260208201905092915050565b7f496e76616c69642072616e646f6d206279746573206c656e6774680000000000600082015250565b600061067e601b83610637565b915061068982610648565b602082019050919050565b600060208201905081810360008301526106ad81610671565b9050919050565b7f4e487b7100000000000000000000000000000000000000000000000000000000600052603260045260246000fd5b600060ff82169050919050565b7f4e487b7100000000000000000000000000000000000000000000000000000000600052601160045260246000fd5b600061072a826106e3565b9150610735836106e3565b92508260ff0382111561074b5761074a6106f0565b5b828201905092915050565b7f4e487b7100000000000000000000000000000000000000000000000000000000600052601260045260246000fd5b6000610790826106e3565b915061079b836106e3565b9250826107ab576107aa610756565b5b828206905092915050565b6000819050919050565b60006107cb826107b6565b91507fffffffffffffffffffffffffffffffffffffffffffffffffffffffffffffffff8214156107fe576107fd6106f0565b5b600182019050919050565b610812816107b6565b82525050565b600060208201905061082d6000830184610809565b92915050565b600082825260208201905092915050565b600061084f8261058d565b6108598185610833565b93506108698185602086016105a9565b61087281610408565b840191505092915050565b600060208201905081810360008301526108978184610844565b905092915050565b7f4e487b7100000000000000000000000000000000000000000000000000000000600052605160045260246000fdfea2646970667358221220c756de23ab6e30e574a6779bf72da026d26ada0979806a9a40506326f4a39cf064736f6c63430008090033","opcodes":"PUSH2 0x904 PUSH2 0x53 PUSH1 0xB DUP3 DUP3 DUP3 CODECOPY DUP1 MLOAD PUSH1 0x0 BYTE PUSH1 0x73 EQ PUSH2 0x46 JUMPI PUSH32 0x4E487B7100000000000000000000000000000000000000000000000000000000 PUSH1 0x0 MSTORE PUSH1 0x0 PUSH1 0x4 MSTORE PUSH1 0x24 PUSH1 0x0 REVERT JUMPDEST ADDRESS PUSH1 0x0 MSTORE PUSH1 0x73 DUP2 MSTORE8 DUP3 DUP2 RETURN INVALID PUSH20 0x0 ADDRESS EQ PUSH1 0x80 PUSH1 0x40 MSTORE PUSH1 0x4 CALLDATASIZE LT PUSH2 0x35 JUMPI PUSH1 0x0 CALLDATALOAD PUSH1 0xE0 SHR DUP1 PUSH4 0xB153B56E EQ PUSH2 0x3A JUMPI JUMPDEST PUSH1 0x0 DUP1 REVERT JUMPDEST PUSH2 0x54 PUSH1 0x4 DUP1 CALLDATASIZE SUB DUP2 ADD SWAP1 PUSH2 0x4F SWAP2 SWAP1 PUSH2 0x544 JUMP JUMPDEST PUSH2 0x6A JUMP JUMPDEST PUSH1 0x40 MLOAD PUSH2 0x61 SWAP2 SWAP1 PUSH2 0x615 JUMP JUMPDEST PUSH1 0x40 MLOAD DUP1 SWAP2 SUB SWAP1 RETURN JUMPDEST PUSH1 0x60 PUSH2 0x76 DUP3 MLOAD PUSH2 0x268 JUMP JUMPDEST PUSH2 0x7F DUP3 PUSH2 0x301 JUMP JUMPDEST PUSH1 0x34 PUSH1 0xFF AND DUP3 MLOAD EQ PUSH2 0xC6 JUMPI PUSH1 0x40 MLOAD PUSH32 0x8C379A000000000000000000000000000000000000000000000000000000000 DUP2 MSTORE PUSH1 0x4 ADD PUSH2 0xBD SWAP1 PUSH2 0x694 JUMP JUMPDEST PUSH1 0x40 MLOAD DUP1 SWAP2 SUB SWAP1 REVERT JUMPDEST PUSH1 0x0 PUSH1 0x34 PUSH1 0xFF AND PUSH8 0xFFFFFFFFFFFFFFFF DUP2 GT ISZERO PUSH2 0xE6 JUMPI PUSH2 0xE5 PUSH2 0x419 JUMP JUMPDEST JUMPDEST PUSH1 0x40 MLOAD SWAP1 DUP1 DUP3 MSTORE DUP1 PUSH1 0x1F ADD PUSH1 0x1F NOT AND PUSH1 0x20 ADD DUP3 ADD PUSH1 0x40 MSTORE DUP1 ISZERO PUSH2 0x118 JUMPI DUP2 PUSH1 0x20 ADD PUSH1 0x1 DUP3 MUL DUP1 CALLDATASIZE DUP4 CALLDATACOPY DUP1 DUP3 ADD SWAP2 POP POP SWAP1 POP JUMPDEST POP SWAP1 POP PUSH1 0x0 DUP1 PUSH1 0x0 SWAP1 POP JUMPDEST DUP5 MLOAD DUP2 LT ISZERO PUSH2 0x260 JUMPI PUSH1 0x0 DUP6 DUP3 DUP2 MLOAD DUP2 LT PUSH2 0x141 JUMPI PUSH2 0x140 PUSH2 0x6B4 JUMP JUMPDEST JUMPDEST PUSH1 0x20 ADD ADD MLOAD PUSH1 0xF8 SHR PUSH1 0xF8 SHL PUSH1 0xF8 SHR SWAP1 POP JUMPDEST PUSH1 0x1 ISZERO PUSH2 0x208 JUMPI PUSH1 0x0 DUP1 PUSH1 0xD0 SHL DUP3 PUSH1 0xFF AND PUSH1 0x1 PUSH1 0x0 SHL PUSH26 0xFFFFFFFFFFFFFFFFFFFFFFFFFFFFFFFFFFFFFFFFFFFFFFFFFFFF NOT AND SWAP1 SHL DUP6 AND PUSH26 0xFFFFFFFFFFFFFFFFFFFFFFFFFFFFFFFFFFFFFFFFFFFFFFFFFFFF NOT AND EQ ISZERO SWAP1 POP DUP1 ISZERO PUSH2 0x1D0 JUMPI PUSH1 0x34 PUSH1 0x1 DUP4 PUSH2 0x1BF SWAP2 SWAP1 PUSH2 0x71F JUMP JUMPDEST PUSH2 0x1C9 SWAP2 SWAP1 PUSH2 0x785 JUMP JUMPDEST SWAP2 POP PUSH2 0x202 JUMP JUMPDEST DUP2 PUSH1 0xFF AND PUSH1 0x1 PUSH1 0x0 SHL PUSH26 0xFFFFFFFFFFFFFFFFFFFFFFFFFFFFFFFFFFFFFFFFFFFFFFFFFFFF NOT AND SWAP1 SHL DUP5 OR SWAP4 POP POP PUSH2 0x208 JUMP JUMPDEST POP PUSH2 0x152 JUMP JUMPDEST DUP1 PUSH1 0xF8 SHL DUP5 DUP4 DUP2 MLOAD DUP2 LT PUSH2 0x21F JUMPI PUSH2 0x21E PUSH2 0x6B4 JUMP JUMPDEST JUMPDEST PUSH1 0x20 ADD ADD SWAP1 PUSH31 0xFFFFFFFFFFFFFFFFFFFFFFFFFFFFFFFFFFFFFFFFFFFFFFFFFFFFFFFFFFFFFF NOT AND SWAP1 DUP2 PUSH1 0x0 BYTE SWAP1 MSTORE8 POP POP DUP1 PUSH2 0x259 SWAP1 PUSH2 0x7C0 JUMP JUMPDEST SWAP1 POP PUSH2 0x123 JUMP JUMPDEST POP POP POP SWAP2 SWAP1 POP JUMP JUMPDEST PUSH2 0x2FE DUP2 PUSH1 0x40 MLOAD PUSH1 0x24 ADD PUSH2 0x27C SWAP2 SWAP1 PUSH2 0x818 JUMP JUMPDEST PUSH1 0x40 MLOAD PUSH1 0x20 DUP2 DUP4 SUB SUB DUP2 MSTORE SWAP1 PUSH1 0x40 MSTORE PUSH32 0xF82C50F100000000000000000000000000000000000000000000000000000000 PUSH28 0xFFFFFFFFFFFFFFFFFFFFFFFFFFFFFFFFFFFFFFFFFFFFFFFFFFFFFFFF NOT AND PUSH1 0x20 DUP3 ADD DUP1 MLOAD PUSH28 0xFFFFFFFFFFFFFFFFFFFFFFFFFFFFFFFFFFFFFFFFFFFFFFFFFFFFFFFF DUP4 DUP2 DUP4 AND OR DUP4 MSTORE POP POP POP POP PUSH2 0x39A JUMP JUMPDEST POP JUMP JUMPDEST PUSH2 0x397 DUP2 PUSH1 0x40 MLOAD PUSH1 0x24 ADD PUSH2 0x315 SWAP2 SWAP1 PUSH2 0x87D JUMP JUMPDEST PUSH1 0x40 MLOAD PUSH1 0x20 DUP2 DUP4 SUB SUB DUP2 MSTORE SWAP1 PUSH1 0x40 MSTORE PUSH32 0xBE77F5600000000000000000000000000000000000000000000000000000000 PUSH28 0xFFFFFFFFFFFFFFFFFFFFFFFFFFFFFFFFFFFFFFFFFFFFFFFFFFFFFFFF NOT AND PUSH1 0x20 DUP3 ADD DUP1 MLOAD PUSH28 0xFFFFFFFFFFFFFFFFFFFFFFFFFFFFFFFFFFFFFFFFFFFFFFFFFFFFFFFF DUP4 DUP2 DUP4 AND OR DUP4 MSTORE POP POP POP POP PUSH2 0x39A JUMP JUMPDEST POP JUMP JUMPDEST PUSH2 0x3B1 DUP2 PUSH2 0x3A9 PUSH2 0x3B4 PUSH2 0x3D5 JUMP JUMPDEST PUSH4 0xFFFFFFFF AND JUMP JUMPDEST POP JUMP JUMPDEST PUSH1 0x0 PUSH11 0x636F6E736F6C652E6C6F67 SWAP1 POP PUSH1 0x0 DUP1 DUP4 MLOAD PUSH1 0x20 DUP6 ADD DUP5 GAS STATICCALL POP POP POP JUMP JUMPDEST PUSH2 0x3E0 DUP2 SWAP1 POP SWAP2 SWAP1 POP JUMP JUMPDEST PUSH2 0x3E8 PUSH2 0x89F JUMP JUMPDEST JUMP JUMPDEST PUSH1 0x0 PUSH1 0x40 MLOAD SWAP1 POP SWAP1 JUMP JUMPDEST PUSH1 0x0 DUP1 REVERT JUMPDEST PUSH1 0x0 DUP1 REVERT JUMPDEST PUSH1 0x0 DUP1 REVERT JUMPDEST PUSH1 0x0 DUP1 REVERT JUMPDEST PUSH1 0x0 PUSH1 0x1F NOT PUSH1 0x1F DUP4 ADD AND SWAP1 POP SWAP2 SWAP1 POP JUMP JUMPDEST PUSH32 0x4E487B7100000000000000000000000000000000000000000000000000000000 PUSH1 0x0 MSTORE PUSH1 0x41 PUSH1 0x4 MSTORE PUSH1 0x24 PUSH1 0x0 REVERT JUMPDEST PUSH2 0x451 DUP3 PUSH2 0x408 JUMP JUMPDEST DUP2 ADD DUP2 DUP2 LT PUSH8 0xFFFFFFFFFFFFFFFF DUP3 GT OR ISZERO PUSH2 0x470 JUMPI PUSH2 0x46F PUSH2 0x419 JUMP JUMPDEST JUMPDEST DUP1 PUSH1 0x40 MSTORE POP POP POP JUMP JUMPDEST PUSH1 0x0 PUSH2 0x483 PUSH2 0x3EA JUMP JUMPDEST SWAP1 POP PUSH2 0x48F DUP3 DUP3 PUSH2 0x448 JUMP JUMPDEST SWAP2 SWAP1 POP JUMP JUMPDEST PUSH1 0x0 PUSH8 0xFFFFFFFFFFFFFFFF DUP3 GT ISZERO PUSH2 0x4AF JUMPI PUSH2 0x4AE PUSH2 0x419 JUMP JUMPDEST JUMPDEST PUSH2 0x4B8 DUP3 PUSH2 0x408 JUMP JUMPDEST SWAP1 POP PUSH1 0x20 DUP2 ADD SWAP1 POP SWAP2 SWAP1 POP JUMP JUMPDEST DUP3 DUP2 DUP4 CALLDATACOPY PUSH1 0x0 DUP4 DUP4 ADD MSTORE POP POP POP JUMP JUMPDEST PUSH1 0x0 PUSH2 0x4E7 PUSH2 0x4E2 DUP5 PUSH2 0x494 JUMP JUMPDEST PUSH2 0x479 JUMP JUMPDEST SWAP1 POP DUP3 DUP2 MSTORE PUSH1 0x20 DUP2 ADD DUP5 DUP5 DUP5 ADD GT ISZERO PUSH2 0x503 JUMPI PUSH2 0x502 PUSH2 0x403 JUMP JUMPDEST JUMPDEST PUSH2 0x50E DUP5 DUP3 DUP6 PUSH2 0x4C5 JUMP JUMPDEST POP SWAP4 SWAP3 POP POP POP JUMP JUMPDEST PUSH1 0x0 DUP3 PUSH1 0x1F DUP4 ADD SLT PUSH2 0x52B JUMPI PUSH2 0x52A PUSH2 0x3FE JUMP JUMPDEST JUMPDEST DUP2 CALLDATALOAD PUSH2 0x53B DUP5 DUP3 PUSH1 0x20 DUP7 ADD PUSH2 0x4D4 JUMP JUMPDEST SWAP2 POP POP SWAP3 SWAP2 POP POP JUMP JUMPDEST PUSH1 0x0 PUSH1 0x20 DUP3 DUP5 SUB SLT ISZERO PUSH2 0x55A JUMPI PUSH2 0x559 PUSH2 0x3F4 JUMP JUMPDEST JUMPDEST PUSH1 0x0 DUP3 ADD CALLDATALOAD PUSH8 0xFFFFFFFFFFFFFFFF DUP2 GT ISZERO PUSH2 0x578 JUMPI PUSH2 0x577 PUSH2 0x3F9 JUMP JUMPDEST JUMPDEST PUSH2 0x584 DUP5 DUP3 DUP6 ADD PUSH2 0x516 JUMP JUMPDEST SWAP2 POP POP SWAP3 SWAP2 POP POP JUMP JUMPDEST PUSH1 0x0 DUP2 MLOAD SWAP1 POP SWAP2 SWAP1 POP JUMP JUMPDEST PUSH1 0x0 DUP3 DUP3 MSTORE PUSH1 0x20 DUP3 ADD SWAP1 POP SWAP3 SWAP2 POP POP JUMP JUMPDEST PUSH1 0x0 JUMPDEST DUP4 DUP2 LT ISZERO PUSH2 0x5C7 JUMPI DUP1 DUP3 ADD MLOAD DUP2 DUP5 ADD MSTORE PUSH1 0x20 DUP2 ADD SWAP1 POP PUSH2 0x5AC JUMP JUMPDEST DUP4 DUP2 GT ISZERO PUSH2 0x5D6 JUMPI PUSH1 0x0 DUP5 DUP5 ADD MSTORE JUMPDEST POP POP POP POP JUMP JUMPDEST PUSH1 0x0 PUSH2 0x5E7 DUP3 PUSH2 0x58D JUMP JUMPDEST PUSH2 0x5F1 DUP2 DUP6 PUSH2 0x598 JUMP JUMPDEST SWAP4 POP PUSH2 0x601 DUP2 DUP6 PUSH1 0x20 DUP7 ADD PUSH2 0x5A9 JUMP JUMPDEST PUSH2 0x60A DUP2 PUSH2 0x408 JUMP JUMPDEST DUP5 ADD SWAP2 POP POP SWAP3 SWAP2 POP POP JUMP JUMPDEST PUSH1 0x0 PUSH1 0x20 DUP3 ADD SWAP1 POP DUP2 DUP2 SUB PUSH1 0x0 DUP4 ADD MSTORE PUSH2 0x62F DUP2 DUP5 PUSH2 0x5DC JUMP JUMPDEST SWAP1 POP SWAP3 SWAP2 POP POP JUMP JUMPDEST PUSH1 0x0 DUP3 DUP3 MSTORE PUSH1 0x20 DUP3 ADD SWAP1 POP SWAP3 SWAP2 POP POP JUMP JUMPDEST PUSH32 0x496E76616C69642072616E646F6D206279746573206C656E6774680000000000 PUSH1 0x0 DUP3 ADD MSTORE POP JUMP JUMPDEST PUSH1 0x0 PUSH2 0x67E PUSH1 0x1B DUP4 PUSH2 0x637 JUMP JUMPDEST SWAP2 POP PUSH2 0x689 DUP3 PUSH2 0x648 JUMP JUMPDEST PUSH1 0x20 DUP3 ADD SWAP1 POP SWAP2 SWAP1 POP JUMP JUMPDEST PUSH1 0x0 PUSH1 0x20 DUP3 ADD SWAP1 POP DUP2 DUP2 SUB PUSH1 0x0 DUP4 ADD MSTORE PUSH2 0x6AD DUP2 PUSH2 0x671 JUMP JUMPDEST SWAP1 POP SWAP2 SWAP1 POP JUMP JUMPDEST PUSH32 0x4E487B7100000000000000000000000000000000000000000000000000000000 PUSH1 0x0 MSTORE PUSH1 0x32 PUSH1 0x4 MSTORE PUSH1 0x24 PUSH1 0x0 REVERT JUMPDEST PUSH1 0x0 PUSH1 0xFF DUP3 AND SWAP1 POP SWAP2 SWAP1 POP JUMP JUMPDEST PUSH32 0x4E487B7100000000000000000000000000000000000000000000000000000000 PUSH1 0x0 MSTORE PUSH1 0x11 PUSH1 0x4 MSTORE PUSH1 0x24 PUSH1 0x0 REVERT JUMPDEST PUSH1 0x0 PUSH2 0x72A DUP3 PUSH2 0x6E3 JUMP JUMPDEST SWAP2 POP PUSH2 0x735 DUP4 PUSH2 0x6E3 JUMP JUMPDEST SWAP3 POP DUP3 PUSH1 0xFF SUB DUP3 GT ISZERO PUSH2 0x74B JUMPI PUSH2 0x74A PUSH2 0x6F0 JUMP JUMPDEST JUMPDEST DUP3 DUP3 ADD SWAP1 POP SWAP3 SWAP2 POP POP JUMP JUMPDEST PUSH32 0x4E487B7100000000000000000000000000000000000000000000000000000000 PUSH1 0x0 MSTORE PUSH1 0x12 PUSH1 0x4 MSTORE PUSH1 0x24 PUSH1 0x0 REVERT JUMPDEST PUSH1 0x0 PUSH2 0x790 DUP3 PUSH2 0x6E3 JUMP JUMPDEST SWAP2 POP PUSH2 0x79B DUP4 PUSH2 0x6E3 JUMP JUMPDEST SWAP3 POP DUP3 PUSH2 0x7AB JUMPI PUSH2 0x7AA PUSH2 0x756 JUMP JUMPDEST JUMPDEST DUP3 DUP3 MOD SWAP1 POP SWAP3 SWAP2 POP POP JUMP JUMPDEST PUSH1 0x0 DUP2 SWAP1 POP SWAP2 SWAP1 POP JUMP JUMPDEST PUSH1 0x0 PUSH2 0x7CB DUP3 PUSH2 0x7B6 JUMP JUMPDEST SWAP2 POP PUSH32 0xFFFFFFFFFFFFFFFFFFFFFFFFFFFFFFFFFFFFFFFFFFFFFFFFFFFFFFFFFFFFFFFF DUP3 EQ ISZERO PUSH2 0x7FE JUMPI PUSH2 0x7FD PUSH2 0x6F0 JUMP JUMPDEST JUMPDEST PUSH1 0x1 DUP3 ADD SWAP1 POP SWAP2 SWAP1 POP JUMP JUMPDEST PUSH2 0x812 DUP2 PUSH2 0x7B6 JUMP JUMPDEST DUP3 MSTORE POP POP JUMP JUMPDEST PUSH1 0x0 PUSH1 0x20 DUP3 ADD SWAP1 POP PUSH2 0x82D PUSH1 0x0 DUP4 ADD DUP5 PUSH2 0x809 JUMP JUMPDEST SWAP3 SWAP2 POP POP JUMP JUMPDEST PUSH1 0x0 DUP3 DUP3 MSTORE PUSH1 0x20 DUP3 ADD SWAP1 POP SWAP3 SWAP2 POP POP JUMP JUMPDEST PUSH1 0x0 PUSH2 0x84F DUP3 PUSH2 0x58D JUMP JUMPDEST PUSH2 0x859 DUP2 DUP6 PUSH2 0x833 JUMP JUMPDEST SWAP4 POP PUSH2 0x869 DUP2 DUP6 PUSH1 0x20 DUP7 ADD PUSH2 0x5A9 JUMP JUMPDEST PUSH2 0x872 DUP2 PUSH2 0x408 JUMP JUMPDEST DUP5 ADD SWAP2 POP POP SWAP3 SWAP2 POP POP JUMP JUMPDEST PUSH1 0x0 PUSH1 0x20 DUP3 ADD SWAP1 POP DUP2 DUP2 SUB PUSH1 0x0 DUP4 ADD MSTORE PUSH2 0x897 DUP2 DUP5 PUSH2 0x844 JUMP JUMPDEST SWAP1 POP SWAP3 SWAP2 POP POP JUMP JUMPDEST PUSH32 0x4E487B7100000000000000000000000000000000000000000000000000000000 PUSH1 0x0 MSTORE PUSH1 0x51 PUSH1 0x4 MSTORE PUSH1 0x24 PUSH1 0x0 REVERT INVALID LOG2 PUSH5 0x6970667358 0x22 SLT KECCAK256 0xC7 JUMP 0xDE 0x23 0xAB PUSH15 0x30E574A6779BF72DA026D26ADA0979 DUP1 PUSH11 0x9A40506326F4A39CF06473 PUSH16 0x6C634300080900330000000000000000 "},"methodIdentifiers":{"seedIntoCardIndices(bytes)":"b153b56e"}}}}}