{"contracts/Poker.sol":{"Poker":{"abi":[{"inputs":[],"name":"createGame","outputs":[],"stateMutability":"nonpayable","type":"function"},{"inputs":[{"internalType":"uint256","name":"gameId","type":"uint256"}],"name":"joinGame","outputs":[],"stateMutability":"nonpayable","type":"function"}],"evm":{"bytecode":{"linkReferences":{},"object":"60806040526000805534801561001457600080fd5b50610e63806100246000396000f3fe608060405234801561001057600080fd5b50600436106100365760003560e01c80637255d7291461003b578063efaa55a014610045575b600080fd5b610043610061565b005b61005f600480360381019061005a919061090a565b61010b565b005b610069610133565b6001600080600081548092919061007f90610966565b91905055815260200190815260200160002060008201518160000160008201518160000190805190602001906100b692919061074c565b50505060208201518160010190805190602001906100d59291906107d2565b5060408201518160020160006101000a81548160ff02191690836002811115610101576101006109af565b5b0217905550905050565b61013033600160008481526020019081526020016000206101be90919063ffffffff16565b50565b61013b61085c565b604051806060016040528061014e6102a1565b8152602001600067ffffffffffffffff81111561016e5761016d6109de565b5b60405190808252806020026020018201604052801561019c5781602001602082028036833780820191505090505b508152602001600060028111156101b6576101b56109af565b5b815250905090565b81600060028111156101d3576101d26109af565b5b8160020160009054906101000a900460ff1660028111156101f7576101f66109af565b5b14610237576040517f08c379a000000000000000000000000000000000000000000000000000000000815260040161022e90610a6a565b60405180910390fd5b82600101829080600181540180825580915050600190039060005260206000200160009091909190916101000a81548173ffffffffffffffffffffffffffffffffffffffff021916908373ffffffffffffffffffffffffffffffffffffffff160217905550505050565b6102a9610895565b60006102c8603460ff16604051806020016040528060008152506102e7565b905060405180602001604052806102de836103d6565b81525091505090565b606060008073010000000000000000000000000000000000000173ffffffffffffffffffffffffffffffffffffffff16858560405160200161032a929190610b32565b6040516020818303038152906040526040516103469190610b9e565b600060405180830381855afa9150503d8060008114610381576040519150601f19603f3d011682016040523d82523d6000602084013e610386565b606091505b5091509150816103cb576040517f08c379a00000000000000000000000000000000000000000000000000000000081526004016103c290610c01565b60405180910390fd5b809250505092915050565b60606103e282516105d4565b6103eb8261066d565b603460ff16825114610432576040517f08c379a000000000000000000000000000000000000000000000000000000000815260040161042990610c6d565b60405180910390fd5b6000603460ff1667ffffffffffffffff811115610452576104516109de565b5b6040519080825280601f01601f1916602001820160405280156104845781602001600182028036833780820191505090505b509050600080600090505b84518110156105cc5760008582815181106104ad576104ac610c8d565b5b602001015160f81c60f81b60f81c90505b6001156105745760008060d01b8260ff16600160001b79ffffffffffffffffffffffffffffffffffffffffffffffffffff1916901b851679ffffffffffffffffffffffffffffffffffffffffffffffffffff191614159050801561053c57603460018361052b9190610cc9565b6105359190610d2f565b915061056e565b8160ff16600160001b79ffffffffffffffffffffffffffffffffffffffffffffffffffff1916901b8417935050610574565b506104be565b8060f81b84838151811061058b5761058a610c8d565b5b60200101907effffffffffffffffffffffffffffffffffffffffffffffffffffffffffffff1916908160001a90535050806105c590610966565b905061048f565b505050919050565b61066a816040516024016105e89190610d60565b6040516020818303038152906040527ff82c50f1000000000000000000000000000000000000000000000000000000007bffffffffffffffffffffffffffffffffffffffffffffffffffffffff19166020820180517bffffffffffffffffffffffffffffffffffffffffffffffffffffffff8381831617835250505050610706565b50565b610703816040516024016106819190610d7b565b6040516020818303038152906040527f0be77f56000000000000000000000000000000000000000000000000000000007bffffffffffffffffffffffffffffffffffffffffffffffffffffffff19166020820180517bffffffffffffffffffffffffffffffffffffffffffffffffffffffff8381831617835250505050610706565b50565b61071d81610715610720610741565b63ffffffff16565b50565b60006a636f6e736f6c652e6c6f679050600080835160208501845afa505050565b6108a8819050919050565b82805461075890610dcc565b90600052602060002090601f01602090048101928261077a57600085556107c1565b82601f1061079357805160ff19168380011785556107c1565b828001600101855582156107c1579182015b828111156107c05782518255916020019190600101906107a5565b5b5090506107ce91906108b2565b5090565b82805482825590600052602060002090810192821561084b579160200282015b8281111561084a5782518260006101000a81548173ffffffffffffffffffffffffffffffffffffffff021916908373ffffffffffffffffffffffffffffffffffffffff160217905550916020019190600101906107f2565b5b50905061085891906108b2565b5090565b604051806060016040528061086f610895565b8152602001606081526020016000600281111561088f5761088e6109af565b5b81525090565b6040518060200160405280606081525090565b6108b0610dfe565b565b5b808211156108cb5760008160009055506001016108b3565b5090565b600080fd5b6000819050919050565b6108e7816108d4565b81146108f257600080fd5b50565b600081359050610904816108de565b92915050565b6000602082840312156109205761091f6108cf565b5b600061092e848285016108f5565b91505092915050565b7f4e487b7100000000000000000000000000000000000000000000000000000000600052601160045260246000fd5b6000610971826108d4565b91507fffffffffffffffffffffffffffffffffffffffffffffffffffffffffffffffff8214156109a4576109a3610937565b5b600182019050919050565b7f4e487b7100000000000000000000000000000000000000000000000000000000600052602160045260246000fd5b7f4e487b7100000000000000000000000000000000000000000000000000000000600052604160045260246000fd5b600082825260208201905092915050565b7f47616d65206973206e6f742070656e64696e6700000000000000000000000000600082015250565b6000610a54601383610a0d565b9150610a5f82610a1e565b602082019050919050565b60006020820190508181036000830152610a8381610a47565b9050919050565b610a93816108d4565b82525050565b600081519050919050565b600082825260208201905092915050565b60005b83811015610ad3578082015181840152602081019050610ab8565b83811115610ae2576000848401525b50505050565b6000601f19601f8301169050919050565b6000610b0482610a99565b610b0e8185610aa4565b9350610b1e818560208601610ab5565b610b2781610ae8565b840191505092915050565b6000604082019050610b476000830185610a8a565b8181036020830152610b598184610af9565b90509392505050565b600081905092915050565b6000610b7882610a99565b610b828185610b62565b9350610b92818560208601610ab5565b80840191505092915050565b6000610baa8284610b6d565b915081905092915050565b7f72616e646f6d42797465733a206661696c656400000000000000000000000000600082015250565b6000610beb601383610a0d565b9150610bf682610bb5565b602082019050919050565b60006020820190508181036000830152610c1a81610bde565b9050919050565b7f496e76616c69642072616e646f6d206279746573206c656e6774680000000000600082015250565b6000610c57601b83610a0d565b9150610c6282610c21565b602082019050919050565b60006020820190508181036000830152610c8681610c4a565b9050919050565b7f4e487b7100000000000000000000000000000000000000000000000000000000600052603260045260246000fd5b600060ff82169050919050565b6000610cd482610cbc565b9150610cdf83610cbc565b92508260ff03821115610cf557610cf4610937565b5b828201905092915050565b7f4e487b7100000000000000000000000000000000000000000000000000000000600052601260045260246000fd5b6000610d3a82610cbc565b9150610d4583610cbc565b925082610d5557610d54610d00565b5b828206905092915050565b6000602082019050610d756000830184610a8a565b92915050565b60006020820190508181036000830152610d958184610af9565b905092915050565b7f4e487b7100000000000000000000000000000000000000000000000000000000600052602260045260246000fd5b60006002820490506001821680610de457607f821691505b60208210811415610df857610df7610d9d565b5b50919050565b7f4e487b7100000000000000000000000000000000000000000000000000000000600052605160045260246000fdfea264697066735822122014c0e75a6c6b1f9df76348ad4edf8852e4cf7119e03f12a68d9559b413da164264736f6c63430008090033","opcodes":"PUSH1 0x80 PUSH1 0x40 MSTORE PUSH1 0x0 DUP1 SSTORE CALLVALUE DUP1 ISZERO PUSH2 0x14 JUMPI PUSH1 0x0 DUP1 REVERT JUMPDEST POP PUSH2 0xE63 DUP1 PUSH2 0x24 PUSH1 0x0 CODECOPY PUSH1 0x0 RETURN INVALID PUSH1 0x80 PUSH1 0x40 MSTORE CALLVALUE DUP1 ISZERO PUSH2 0x10 JUMPI PUSH1 0x0 DUP1 REVERT JUMPDEST POP PUSH1 0x4 CALLDATASIZE LT PUSH2 0x36 JUMPI PUSH1 0x0 CALLDATALOAD PUSH1 0xE0 SHR DUP1 PUSH4 0x7255D729 EQ PUSH2 0x3B JUMPI DUP1 PUSH4 0xEFAA55A0 EQ PUSH2 0x45 JUMPI JUMPDEST PUSH1 0x0 DUP1 REVERT JUMPDEST PUSH2 0x43 PUSH2 0x61 JUMP JUMPDEST STOP JUMPDEST PUSH2 0x5F PUSH1 0x4 DUP1 CALLDATASIZE SUB DUP2 ADD SWAP1 PUSH2 0x5A SWAP2 SWAP1 PUSH2 0x90A JUMP JUMPDEST PUSH2 0x10B JUMP JUMPDEST STOP JUMPDEST PUSH2 0x69 PUSH2 0x133 JUMP JUMPDEST PUSH1 0x1 PUSH1 0x0 DUP1 PUSH1 0x0 DUP2 SLOAD DUP1 SWAP3 SWAP2 SWAP1 PUSH2 0x7F SWAP1 PUSH2 0x966 JUMP JUMPDEST SWAP2 SWAP1 POP SSTORE DUP2 MSTORE PUSH1 0x20 ADD SWAP1 DUP2 MSTORE PUSH1 0x20 ADD PUSH1 0x0 KECCAK256 PUSH1 0x0 DUP3 ADD MLOAD DUP2 PUSH1 0x0 ADD PUSH1 0x0 DUP3 ADD MLOAD DUP2 PUSH1 0x0 ADD SWAP1 DUP1 MLOAD SWAP1 PUSH1 0x20 ADD SWAP1 PUSH2 0xB6 SWAP3 SWAP2 SWAP1 PUSH2 0x74C JUMP JUMPDEST POP POP POP PUSH1 0x20 DUP3 ADD MLOAD DUP2 PUSH1 0x1 ADD SWAP1 DUP1 MLOAD SWAP1 PUSH1 0x20 ADD SWAP1 PUSH2 0xD5 SWAP3 SWAP2 SWAP1 PUSH2 0x7D2 JUMP JUMPDEST POP PUSH1 0x40 DUP3 ADD MLOAD DUP2 PUSH1 0x2 ADD PUSH1 0x0 PUSH2 0x100 EXP DUP2 SLOAD DUP2 PUSH1 0xFF MUL NOT AND SWAP1 DUP4 PUSH1 0x2 DUP2 GT ISZERO PUSH2 0x101 JUMPI PUSH2 0x100 PUSH2 0x9AF JUMP JUMPDEST JUMPDEST MUL OR SWAP1 SSTORE POP SWAP1 POP POP JUMP JUMPDEST PUSH2 0x130 CALLER PUSH1 0x1 PUSH1 0x0 DUP5 DUP2 MSTORE PUSH1 0x20 ADD SWAP1 DUP2 MSTORE PUSH1 0x20 ADD PUSH1 0x0 KECCAK256 PUSH2 0x1BE SWAP1 SWAP2 SWAP1 PUSH4 0xFFFFFFFF AND JUMP JUMPDEST POP JUMP JUMPDEST PUSH2 0x13B PUSH2 0x85C JUMP JUMPDEST PUSH1 0x40 MLOAD DUP1 PUSH1 0x60 ADD PUSH1 0x40 MSTORE DUP1 PUSH2 0x14E PUSH2 0x2A1 JUMP JUMPDEST DUP2 MSTORE PUSH1 0x20 ADD PUSH1 0x0 PUSH8 0xFFFFFFFFFFFFFFFF DUP2 GT ISZERO PUSH2 0x16E JUMPI PUSH2 0x16D PUSH2 0x9DE JUMP JUMPDEST JUMPDEST PUSH1 0x40 MLOAD SWAP1 DUP1 DUP3 MSTORE DUP1 PUSH1 0x20 MUL PUSH1 0x20 ADD DUP3 ADD PUSH1 0x40 MSTORE DUP1 ISZERO PUSH2 0x19C JUMPI DUP2 PUSH1 0x20 ADD PUSH1 0x20 DUP3 MUL DUP1 CALLDATASIZE DUP4 CALLDATACOPY DUP1 DUP3 ADD SWAP2 POP POP SWAP1 POP JUMPDEST POP DUP2 MSTORE PUSH1 0x20 ADD PUSH1 0x0 PUSH1 0x2 DUP2 GT ISZERO PUSH2 0x1B6 JUMPI PUSH2 0x1B5 PUSH2 0x9AF JUMP JUMPDEST JUMPDEST DUP2 MSTORE POP SWAP1 POP SWAP1 JUMP JUMPDEST DUP2 PUSH1 0x0 PUSH1 0x2 DUP2 GT ISZERO PUSH2 0x1D3 JUMPI PUSH2 0x1D2 PUSH2 0x9AF JUMP JUMPDEST JUMPDEST DUP2 PUSH1 0x2 ADD PUSH1 0x0 SWAP1 SLOAD SWAP1 PUSH2 0x100 EXP SWAP1 DIV PUSH1 0xFF AND PUSH1 0x2 DUP2 GT ISZERO PUSH2 0x1F7 JUMPI PUSH2 0x1F6 PUSH2 0x9AF JUMP JUMPDEST JUMPDEST EQ PUSH2 0x237 JUMPI PUSH1 0x40 MLOAD PUSH32 0x8C379A000000000000000000000000000000000000000000000000000000000 DUP2 MSTORE PUSH1 0x4 ADD PUSH2 0x22E SWAP1 PUSH2 0xA6A JUMP JUMPDEST PUSH1 0x40 MLOAD DUP1 SWAP2 SUB SWAP1 REVERT JUMPDEST DUP3 PUSH1 0x1 ADD DUP3 SWAP1 DUP1 PUSH1 0x1 DUP2 SLOAD ADD DUP1 DUP3 SSTORE DUP1 SWAP2 POP POP PUSH1 0x1 SWAP1 SUB SWAP1 PUSH1 0x0 MSTORE PUSH1 0x20 PUSH1 0x0 KECCAK256 ADD PUSH1 0x0 SWAP1 SWAP2 SWAP1 SWAP2 SWAP1 SWAP2 PUSH2 0x100 EXP DUP2 SLOAD DUP2 PUSH20 0xFFFFFFFFFFFFFFFFFFFFFFFFFFFFFFFFFFFFFFFF MUL NOT AND SWAP1 DUP4 PUSH20 0xFFFFFFFFFFFFFFFFFFFFFFFFFFFFFFFFFFFFFFFF AND MUL OR SWAP1 SSTORE POP POP POP POP JUMP JUMPDEST PUSH2 0x2A9 PUSH2 0x895 JUMP JUMPDEST PUSH1 0x0 PUSH2 0x2C8 PUSH1 0x34 PUSH1 0xFF AND PUSH1 0x40 MLOAD DUP1 PUSH1 0x20 ADD PUSH1 0x40 MSTORE DUP1 PUSH1 0x0 DUP2 MSTORE POP PUSH2 0x2E7 JUMP JUMPDEST SWAP1 POP PUSH1 0x40 MLOAD DUP1 PUSH1 0x20 ADD PUSH1 0x40 MSTORE DUP1 PUSH2 0x2DE DUP4 PUSH2 0x3D6 JUMP JUMPDEST DUP2 MSTORE POP SWAP2 POP POP SWAP1 JUMP JUMPDEST PUSH1 0x60 PUSH1 0x0 DUP1 PUSH20 0x100000000000000000000000000000000000001 PUSH20 0xFFFFFFFFFFFFFFFFFFFFFFFFFFFFFFFFFFFFFFFF AND DUP6 DUP6 PUSH1 0x40 MLOAD PUSH1 0x20 ADD PUSH2 0x32A SWAP3 SWAP2 SWAP1 PUSH2 0xB32 JUMP JUMPDEST PUSH1 0x40 MLOAD PUSH1 0x20 DUP2 DUP4 SUB SUB DUP2 MSTORE SWAP1 PUSH1 0x40 MSTORE PUSH1 0x40 MLOAD PUSH2 0x346 SWAP2 SWAP1 PUSH2 0xB9E JUMP JUMPDEST PUSH1 0x0 PUSH1 0x40 MLOAD DUP1 DUP4 SUB DUP2 DUP6 GAS STATICCALL SWAP2 POP POP RETURNDATASIZE DUP1 PUSH1 0x0 DUP2 EQ PUSH2 0x381 JUMPI PUSH1 0x40 MLOAD SWAP2 POP PUSH1 0x1F NOT PUSH1 0x3F RETURNDATASIZE ADD AND DUP3 ADD PUSH1 0x40 MSTORE RETURNDATASIZE DUP3 MSTORE RETURNDATASIZE PUSH1 0x0 PUSH1 0x20 DUP5 ADD RETURNDATACOPY PUSH2 0x386 JUMP JUMPDEST PUSH1 0x60 SWAP2 POP JUMPDEST POP SWAP2 POP SWAP2 POP DUP2 PUSH2 0x3CB JUMPI PUSH1 0x40 MLOAD PUSH32 0x8C379A000000000000000000000000000000000000000000000000000000000 DUP2 MSTORE PUSH1 0x4 ADD PUSH2 0x3C2 SWAP1 PUSH2 0xC01 JUMP JUMPDEST PUSH1 0x40 MLOAD DUP1 SWAP2 SUB SWAP1 REVERT JUMPDEST DUP1 SWAP3 POP POP POP SWAP3 SWAP2 POP POP JUMP JUMPDEST PUSH1 0x60 PUSH2 0x3E2 DUP3 MLOAD PUSH2 0x5D4 JUMP JUMPDEST PUSH2 0x3EB DUP3 PUSH2 0x66D JUMP JUMPDEST PUSH1 0x34 PUSH1 0xFF AND DUP3 MLOAD EQ PUSH2 0x432 JUMPI PUSH1 0x40 MLOAD PUSH32 0x8C379A000000000000000000000000000000000000000000000000000000000 DUP2 MSTORE PUSH1 0x4 ADD PUSH2 0x429 SWAP1 PUSH2 0xC6D JUMP JUMPDEST PUSH1 0x40 MLOAD DUP1 SWAP2 SUB SWAP1 REVERT JUMPDEST PUSH1 0x0 PUSH1 0x34 PUSH1 0xFF AND PUSH8 0xFFFFFFFFFFFFFFFF DUP2 GT ISZERO PUSH2 0x452 JUMPI PUSH2 0x451 PUSH2 0x9DE JUMP JUMPDEST JUMPDEST PUSH1 0x40 MLOAD SWAP1 DUP1 DUP3 MSTORE DUP1 PUSH1 0x1F ADD PUSH1 0x1F NOT AND PUSH1 0x20 ADD DUP3 ADD PUSH1 0x40 MSTORE DUP1 ISZERO PUSH2 0x484 JUMPI DUP2 PUSH1 0x20 ADD PUSH1 0x1 DUP3 MUL DUP1 CALLDATASIZE DUP4 CALLDATACOPY DUP1 DUP3 ADD SWAP2 POP POP SWAP1 POP JUMPDEST POP SWAP1 POP PUSH1 0x0 DUP1 PUSH1 0x0 SWAP1 POP JUMPDEST DUP5 MLOAD DUP2 LT ISZERO PUSH2 0x5CC JUMPI PUSH1 0x0 DUP6 DUP3 DUP2 MLOAD DUP2 LT PUSH2 0x4AD JUMPI PUSH2 0x4AC PUSH2 0xC8D JUMP JUMPDEST JUMPDEST PUSH1 0x20 ADD ADD MLOAD PUSH1 0xF8 SHR PUSH1 0xF8 SHL PUSH1 0xF8 SHR SWAP1 POP JUMPDEST PUSH1 0x1 ISZERO PUSH2 0x574 JUMPI PUSH1 0x0 DUP1 PUSH1 0xD0 SHL DUP3 PUSH1 0xFF AND PUSH1 0x1 PUSH1 0x0 SHL PUSH26 0xFFFFFFFFFFFFFFFFFFFFFFFFFFFFFFFFFFFFFFFFFFFFFFFFFFFF NOT AND SWAP1 SHL DUP6 AND PUSH26 0xFFFFFFFFFFFFFFFFFFFFFFFFFFFFFFFFFFFFFFFFFFFFFFFFFFFF NOT AND EQ ISZERO SWAP1 POP DUP1 ISZERO PUSH2 0x53C JUMPI PUSH1 0x34 PUSH1 0x1 DUP4 PUSH2 0x52B SWAP2 SWAP1 PUSH2 0xCC9 JUMP JUMPDEST PUSH2 0x535 SWAP2 SWAP1 PUSH2 0xD2F JUMP JUMPDEST SWAP2 POP PUSH2 0x56E JUMP JUMPDEST DUP2 PUSH1 0xFF AND PUSH1 0x1 PUSH1 0x0 SHL PUSH26 0xFFFFFFFFFFFFFFFFFFFFFFFFFFFFFFFFFFFFFFFFFFFFFFFFFFFF NOT AND SWAP1 SHL DUP5 OR SWAP4 POP POP PUSH2 0x574 JUMP JUMPDEST POP PUSH2 0x4BE JUMP JUMPDEST DUP1 PUSH1 0xF8 SHL DUP5 DUP4 DUP2 MLOAD DUP2 LT PUSH2 0x58B JUMPI PUSH2 0x58A PUSH2 0xC8D JUMP JUMPDEST JUMPDEST PUSH1 0x20 ADD ADD SWAP1 PUSH31 0xFFFFFFFFFFFFFFFFFFFFFFFFFFFFFFFFFFFFFFFFFFFFFFFFFFFFFFFFFFFFFF NOT AND SWAP1 DUP2 PUSH1 0x0 BYTE SWAP1 MSTORE8 POP POP DUP1 PUSH2 0x5C5 SWAP1 PUSH2 0x966 JUMP JUMPDEST SWAP1 POP PUSH2 0x48F JUMP JUMPDEST POP POP POP SWAP2 SWAP1 POP JUMP JUMPDEST PUSH2 0x66A DUP2 PUSH1 0x40 MLOAD PUSH1 0x24 ADD PUSH2 0x5E8 SWAP2 SWAP1 PUSH2 0xD60 JUMP JUMPDEST PUSH1 0x40 MLOAD PUSH1 0x20 DUP2 DUP4 SUB SUB DUP2 MSTORE SWAP1 PUSH1 0x40 MSTORE PUSH32 0xF82C50F100000000000000000000000000000000000000000000000000000000 PUSH28 0xFFFFFFFFFFFFFFFFFFFFFFFFFFFFFFFFFFFFFFFFFFFFFFFFFFFFFFFF NOT AND PUSH1 0x20 DUP3 ADD DUP1 MLOAD PUSH28 0xFFFFFFFFFFFFFFFFFFFFFFFFFFFFFFFFFFFFFFFFFFFFFFFFFFFFFFFF DUP4 DUP2 DUP4 AND OR DUP4 MSTORE POP POP POP POP PUSH2 0x706 JUMP JUMPDEST POP JUMP JUMPDEST PUSH2 0x703 DUP2 PUSH1 0x40 MLOAD PUSH1 0x24 ADD PUSH2 0x681 SWAP2 SWAP1 PUSH2 0xD7B JUMP JUMPDEST PUSH1 0x40 MLOAD PUSH1 0x20 DUP2 DUP4 SUB SUB DUP2 MSTORE SWAP1 PUSH1 0x40 MSTORE PUSH32 0xBE77F5600000000000000000000000000000000000000000000000000000000 PUSH28 0xFFFFFFFFFFFFFFFFFFFFFFFFFFFFFFFFFFFFFFFFFFFFFFFFFFFFFFFF NOT AND PUSH1 0x20 DUP3 ADD DUP1 MLOAD PUSH28 0xFFFFFFFFFFFFFFFFFFFFFFFFFFFFFFFFFFFFFFFFFFFFFFFFFFFFFFFF DUP4 DUP2 DUP4 AND OR DUP4 MSTORE POP POP POP POP PUSH2 0x706 JUMP JUMPDEST POP JUMP JUMPDEST PUSH2 0x71D DUP2 PUSH2 0x715 PUSH2 0x720 PUSH2 0x741 JUMP JUMPDEST PUSH4 0xFFFFFFFF AND JUMP JUMPDEST POP JUMP JUMPDEST PUSH1 0x0 PUSH11 0x636F6E736F6C652E6C6F67 SWAP1 POP PUSH1 0x0 DUP1 DUP4 MLOAD PUSH1 0x20 DUP6 ADD DUP5 GAS STATICCALL POP POP POP JUMP JUMPDEST PUSH2 0x8A8 DUP2 SWAP1 POP SWAP2 SWAP1 POP JUMP JUMPDEST DUP3 DUP1 SLOAD PUSH2 0x758 SWAP1 PUSH2 0xDCC JUMP JUMPDEST SWAP1 PUSH1 0x0 MSTORE PUSH1 0x20 PUSH1 0x0 KECCAK256 SWAP1 PUSH1 0x1F ADD PUSH1 0x20 SWAP1 DIV DUP2 ADD SWAP3 DUP3 PUSH2 0x77A JUMPI PUSH1 0x0 DUP6 SSTORE PUSH2 0x7C1 JUMP JUMPDEST DUP3 PUSH1 0x1F LT PUSH2 0x793 JUMPI DUP1 MLOAD PUSH1 0xFF NOT AND DUP4 DUP1 ADD OR DUP6 SSTORE PUSH2 0x7C1 JUMP JUMPDEST DUP3 DUP1 ADD PUSH1 0x1 ADD DUP6 SSTORE DUP3 ISZERO PUSH2 0x7C1 JUMPI SWAP2 DUP3 ADD JUMPDEST DUP3 DUP2 GT ISZERO PUSH2 0x7C0 JUMPI DUP3 MLOAD DUP3 SSTORE SWAP2 PUSH1 0x20 ADD SWAP2 SWAP1 PUSH1 0x1 ADD SWAP1 PUSH2 0x7A5 JUMP JUMPDEST JUMPDEST POP SWAP1 POP PUSH2 0x7CE SWAP2 SWAP1 PUSH2 0x8B2 JUMP JUMPDEST POP SWAP1 JUMP JUMPDEST DUP3 DUP1 SLOAD DUP3 DUP3 SSTORE SWAP1 PUSH1 0x0 MSTORE PUSH1 0x20 PUSH1 0x0 KECCAK256 SWAP1 DUP2 ADD SWAP3 DUP3 ISZERO PUSH2 0x84B JUMPI SWAP2 PUSH1 0x20 MUL DUP3 ADD JUMPDEST DUP3 DUP2 GT ISZERO PUSH2 0x84A JUMPI DUP3 MLOAD DUP3 PUSH1 0x0 PUSH2 0x100 EXP DUP2 SLOAD DUP2 PUSH20 0xFFFFFFFFFFFFFFFFFFFFFFFFFFFFFFFFFFFFFFFF MUL NOT AND SWAP1 DUP4 PUSH20 0xFFFFFFFFFFFFFFFFFFFFFFFFFFFFFFFFFFFFFFFF AND MUL OR SWAP1 SSTORE POP SWAP2 PUSH1 0x20 ADD SWAP2 SWAP1 PUSH1 0x1 ADD SWAP1 PUSH2 0x7F2 JUMP JUMPDEST JUMPDEST POP SWAP1 POP PUSH2 0x858 SWAP2 SWAP1 PUSH2 0x8B2 JUMP JUMPDEST POP SWAP1 JUMP JUMPDEST PUSH1 0x40 MLOAD DUP1 PUSH1 0x60 ADD PUSH1 0x40 MSTORE DUP1 PUSH2 0x86F PUSH2 0x895 JUMP JUMPDEST DUP2 MSTORE PUSH1 0x20 ADD PUSH1 0x60 DUP2 MSTORE PUSH1 0x20 ADD PUSH1 0x0 PUSH1 0x2 DUP2 GT ISZERO PUSH2 0x88F JUMPI PUSH2 0x88E PUSH2 0x9AF JUMP JUMPDEST JUMPDEST DUP2 MSTORE POP SWAP1 JUMP JUMPDEST PUSH1 0x40 MLOAD DUP1 PUSH1 0x20 ADD PUSH1 0x40 MSTORE DUP1 PUSH1 0x60 DUP2 MSTORE POP SWAP1 JUMP JUMPDEST PUSH2 0x8B0 PUSH2 0xDFE JUMP JUMPDEST JUMP JUMPDEST JUMPDEST DUP1 DUP3 GT ISZERO PUSH2 0x8CB JUMPI PUSH1 0x0 DUP2 PUSH1 0x0 SWAP1 SSTORE POP PUSH1 0x1 ADD PUSH2 0x8B3 JUMP JUMPDEST POP SWAP1 JUMP JUMPDEST PUSH1 0x0 DUP1 REVERT JUMPDEST PUSH1 0x0 DUP2 SWAP1 POP SWAP2 SWAP1 POP JUMP JUMPDEST PUSH2 0x8E7 DUP2 PUSH2 0x8D4 JUMP JUMPDEST DUP2 EQ PUSH2 0x8F2 JUMPI PUSH1 0x0 DUP1 REVERT JUMPDEST POP JUMP JUMPDEST PUSH1 0x0 DUP2 CALLDATALOAD SWAP1 POP PUSH2 0x904 DUP2 PUSH2 0x8DE JUMP JUMPDEST SWAP3 SWAP2 POP POP JUMP JUMPDEST PUSH1 0x0 PUSH1 0x20 DUP3 DUP5 SUB SLT ISZERO PUSH2 0x920 JUMPI PUSH2 0x91F PUSH2 0x8CF JUMP JUMPDEST JUMPDEST PUSH1 0x0 PUSH2 0x92E DUP5 DUP3 DUP6 ADD PUSH2 0x8F5 JUMP JUMPDEST SWAP2 POP POP SWAP3 SWAP2 POP POP JUMP JUMPDEST PUSH32 0x4E487B7100000000000000000000000000000000000000000000000000000000 PUSH1 0x0 MSTORE PUSH1 0x11 PUSH1 0x4 MSTORE PUSH1 0x24 PUSH1 0x0 REVERT JUMPDEST PUSH1 0x0 PUSH2 0x971 DUP3 PUSH2 0x8D4 JUMP JUMPDEST SWAP2 POP PUSH32 0xFFFFFFFFFFFFFFFFFFFFFFFFFFFFFFFFFFFFFFFFFFFFFFFFFFFFFFFFFFFFFFFF DUP3 EQ ISZERO PUSH2 0x9A4 JUMPI PUSH2 0x9A3 PUSH2 0x937 JUMP JUMPDEST JUMPDEST PUSH1 0x1 DUP3 ADD SWAP1 POP SWAP2 SWAP1 POP JUMP JUMPDEST PUSH32 0x4E487B7100000000000000000000000000000000000000000000000000000000 PUSH1 0x0 MSTORE PUSH1 0x21 PUSH1 0x4 MSTORE PUSH1 0x24 PUSH1 0x0 REVERT JUMPDEST PUSH32 0x4E487B7100000000000000000000000000000000000000000000000000000000 PUSH1 0x0 MSTORE PUSH1 0x41 PUSH1 0x4 MSTORE PUSH1 0x24 PUSH1 0x0 REVERT JUMPDEST PUSH1 0x0 DUP3 DUP3 MSTORE PUSH1 0x20 DUP3 ADD SWAP1 POP SWAP3 SWAP2 POP POP JUMP JUMPDEST PUSH32 0x47616D65206973206E6F742070656E64696E6700000000000000000000000000 PUSH1 0x0 DUP3 ADD MSTORE POP JUMP JUMPDEST PUSH1 0x0 PUSH2 0xA54 PUSH1 0x13 DUP4 PUSH2 0xA0D JUMP JUMPDEST SWAP2 POP PUSH2 0xA5F DUP3 PUSH2 0xA1E JUMP JUMPDEST PUSH1 0x20 DUP3 ADD SWAP1 POP SWAP2 SWAP1 POP JUMP JUMPDEST PUSH1 0x0 PUSH1 0x20 DUP3 ADD SWAP1 POP DUP2 DUP2 SUB PUSH1 0x0 DUP4 ADD MSTORE PUSH2 0xA83 DUP2 PUSH2 0xA47 JUMP JUMPDEST SWAP1 POP SWAP2 SWAP1 POP JUMP JUMPDEST PUSH2 0xA93 DUP2 PUSH2 0x8D4 JUMP JUMPDEST DUP3 MSTORE POP POP JUMP JUMPDEST PUSH1 0x0 DUP2 MLOAD SWAP1 POP SWAP2 SWAP1 POP JUMP JUMPDEST PUSH1 0x0 DUP3 DUP3 MSTORE PUSH1 0x20 DUP3 ADD SWAP1 POP SWAP3 SWAP2 POP POP JUMP JUMPDEST PUSH1 0x0 JUMPDEST DUP4 DUP2 LT ISZERO PUSH2 0xAD3 JUMPI DUP1 DUP3 ADD MLOAD DUP2 DUP5 ADD MSTORE PUSH1 0x20 DUP2 ADD SWAP1 POP PUSH2 0xAB8 JUMP JUMPDEST DUP4 DUP2 GT ISZERO PUSH2 0xAE2 JUMPI PUSH1 0x0 DUP5 DUP5 ADD MSTORE JUMPDEST POP POP POP POP JUMP JUMPDEST PUSH1 0x0 PUSH1 0x1F NOT PUSH1 0x1F DUP4 ADD AND SWAP1 POP SWAP2 SWAP1 POP JUMP JUMPDEST PUSH1 0x0 PUSH2 0xB04 DUP3 PUSH2 0xA99 JUMP JUMPDEST PUSH2 0xB0E DUP2 DUP6 PUSH2 0xAA4 JUMP JUMPDEST SWAP4 POP PUSH2 0xB1E DUP2 DUP6 PUSH1 0x20 DUP7 ADD PUSH2 0xAB5 JUMP JUMPDEST PUSH2 0xB27 DUP2 PUSH2 0xAE8 JUMP JUMPDEST DUP5 ADD SWAP2 POP POP SWAP3 SWAP2 POP POP JUMP JUMPDEST PUSH1 0x0 PUSH1 0x40 DUP3 ADD SWAP1 POP PUSH2 0xB47 PUSH1 0x0 DUP4 ADD DUP6 PUSH2 0xA8A JUMP JUMPDEST DUP2 DUP2 SUB PUSH1 0x20 DUP4 ADD MSTORE PUSH2 0xB59 DUP2 DUP5 PUSH2 0xAF9 JUMP JUMPDEST SWAP1 POP SWAP4 SWAP3 POP POP POP JUMP JUMPDEST PUSH1 0x0 DUP2 SWAP1 POP SWAP3 SWAP2 POP POP JUMP JUMPDEST PUSH1 0x0 PUSH2 0xB78 DUP3 PUSH2 0xA99 JUMP JUMPDEST PUSH2 0xB82 DUP2 DUP6 PUSH2 0xB62 JUMP JUMPDEST SWAP4 POP PUSH2 0xB92 DUP2 DUP6 PUSH1 0x20 DUP7 ADD PUSH2 0xAB5 JUMP JUMPDEST DUP1 DUP5 ADD SWAP2 POP POP SWAP3 SWAP2 POP POP JUMP JUMPDEST PUSH1 0x0 PUSH2 0xBAA DUP3 DUP5 PUSH2 0xB6D JUMP JUMPDEST SWAP2 POP DUP2 SWAP1 POP SWAP3 SWAP2 POP POP JUMP JUMPDEST PUSH32 0x72616E646F6D42797465733A206661696C656400000000000000000000000000 PUSH1 0x0 DUP3 ADD MSTORE POP JUMP JUMPDEST PUSH1 0x0 PUSH2 0xBEB PUSH1 0x13 DUP4 PUSH2 0xA0D JUMP JUMPDEST SWAP2 POP PUSH2 0xBF6 DUP3 PUSH2 0xBB5 JUMP JUMPDEST PUSH1 0x20 DUP3 ADD SWAP1 POP SWAP2 SWAP1 POP JUMP JUMPDEST PUSH1 0x0 PUSH1 0x20 DUP3 ADD SWAP1 POP DUP2 DUP2 SUB PUSH1 0x0 DUP4 ADD MSTORE PUSH2 0xC1A DUP2 PUSH2 0xBDE JUMP JUMPDEST SWAP1 POP SWAP2 SWAP1 POP JUMP JUMPDEST PUSH32 0x496E76616C69642072616E646F6D206279746573206C656E6774680000000000 PUSH1 0x0 DUP3 ADD MSTORE POP JUMP JUMPDEST PUSH1 0x0 PUSH2 0xC57 PUSH1 0x1B DUP4 PUSH2 0xA0D JUMP JUMPDEST SWAP2 POP PUSH2 0xC62 DUP3 PUSH2 0xC21 JUMP JUMPDEST PUSH1 0x20 DUP3 ADD SWAP1 POP SWAP2 SWAP1 POP JUMP JUMPDEST PUSH1 0x0 PUSH1 0x20 DUP3 ADD SWAP1 POP DUP2 DUP2 SUB PUSH1 0x0 DUP4 ADD MSTORE PUSH2 0xC86 DUP2 PUSH2 0xC4A JUMP JUMPDEST SWAP1 POP SWAP2 SWAP1 POP JUMP JUMPDEST PUSH32 0x4E487B7100000000000000000000000000000000000000000000000000000000 PUSH1 0x0 MSTORE PUSH1 0x32 PUSH1 0x4 MSTORE PUSH1 0x24 PUSH1 0x0 REVERT JUMPDEST PUSH1 0x0 PUSH1 0xFF DUP3 AND SWAP1 POP SWAP2 SWAP1 POP JUMP JUMPDEST PUSH1 0x0 PUSH2 0xCD4 DUP3 PUSH2 0xCBC JUMP JUMPDEST SWAP2 POP PUSH2 0xCDF DUP4 PUSH2 0xCBC JUMP JUMPDEST SWAP3 POP DUP3 PUSH1 0xFF SUB DUP3 GT ISZERO PUSH2 0xCF5 JUMPI PUSH2 0xCF4 PUSH2 0x937 JUMP JUMPDEST JUMPDEST DUP3 DUP3 ADD SWAP1 POP SWAP3 SWAP2 POP POP JUMP JUMPDEST PUSH32 0x4E487B7100000000000000000000000000000000000000000000000000000000 PUSH1 0x0 MSTORE PUSH1 0x12 PUSH1 0x4 MSTORE PUSH1 0x24 PUSH1 0x0 REVERT JUMPDEST PUSH1 0x0 PUSH2 0xD3A DUP3 PUSH2 0xCBC JUMP JUMPDEST SWAP2 POP PUSH2 0xD45 DUP4 PUSH2 0xCBC JUMP JUMPDEST SWAP3 POP DUP3 PUSH2 0xD55 JUMPI PUSH2 0xD54 PUSH2 0xD00 JUMP JUMPDEST JUMPDEST DUP3 DUP3 MOD SWAP1 POP SWAP3 SWAP2 POP POP JUMP JUMPDEST PUSH1 0x0 PUSH1 0x20 DUP3 ADD SWAP1 POP PUSH2 0xD75 PUSH1 0x0 DUP4 ADD DUP5 PUSH2 0xA8A JUMP JUMPDEST SWAP3 SWAP2 POP POP JUMP JUMPDEST PUSH1 0x0 PUSH1 0x20 DUP3 ADD SWAP1 POP DUP2 DUP2 SUB PUSH1 0x0 DUP4 ADD MSTORE PUSH2 0xD95 DUP2 DUP5 PUSH2 0xAF9 JUMP JUMPDEST SWAP1 POP SWAP3 SWAP2 POP POP JUMP JUMPDEST PUSH32 0x4E487B7100000000000000000000000000000000000000000000000000000000 PUSH1 0x0 MSTORE PUSH1 0x22 PUSH1 0x4 MSTORE PUSH1 0x24 PUSH1 0x0 REVERT JUMPDEST PUSH1 0x0 PUSH1 0x2 DUP3 DIV SWAP1 POP PUSH1 0x1 DUP3 AND DUP1 PUSH2 0xDE4 JUMPI PUSH1 0x7F DUP3 AND SWAP2 POP JUMPDEST PUSH1 0x20 DUP3 LT DUP2 EQ ISZERO PUSH2 0xDF8 JUMPI PUSH2 0xDF7 PUSH2 0xD9D JUMP JUMPDEST JUMPDEST POP SWAP2 SWAP1 POP JUMP JUMPDEST PUSH32 0x4E487B7100000000000000000000000000000000000000000000000000000000 PUSH1 0x0 MSTORE PUSH1 0x51 PUSH1 0x4 MSTORE PUSH1 0x24 PUSH1 0x0 REVERT INVALID LOG2 PUSH5 0x6970667358 0x22 SLT KECCAK256 EQ 0xC0 0xE7 GAS PUSH13 0x6B1F9DF76348AD4EDF8852E4CF PUSH18 0x19E03F12A68D9559B413DA164264736F6C63 NUMBER STOP ADDMOD MULMOD STOP CALLER "},"methodIdentifiers":{"createGame()":"7255d729","joinGame(uint256)":"efaa55a0"}}}}}