{"contracts/Poker.sol":{"Poker":{"abi":[{"inputs":[],"name":"createGame","outputs":[],"stateMutability":"nonpayable","type":"function"},{"inputs":[{"internalType":"uint256","name":"gameId","type":"uint256"}],"name":"joinGame","outputs":[],"stateMutability":"nonpayable","type":"function"}],"evm":{"bytecode":{"linkReferences":{},"object":"60806040526000805534801561001457600080fd5b50610c62806100246000396000f3fe608060405234801561001057600080fd5b50600436106100365760003560e01c80637255d7291461003b578063efaa55a014610045575b600080fd5b610043610061565b005b61005f600480360381019061005a9190610775565b61010b565b005b610069610133565b6001600080600081548092919061007f906107d1565b91905055815260200190815260200160002060008201518160000160008201518160000190805190602001906100b69291906105c1565b50505060208201518160010190805190602001906100d5929190610647565b5060408201518160020160006101000a81548160ff021916908360028111156101015761010061081a565b5b0217905550905050565b61013033600160008481526020019081526020016000206101be90919063ffffffff16565b50565b61013b6106d1565b604051806060016040528061014e6102a1565b8152602001600067ffffffffffffffff81111561016e5761016d610849565b5b60405190808252806020026020018201604052801561019c5781602001602082028036833780820191505090505b508152602001600060028111156101b6576101b561081a565b5b815250905090565b81600060028111156101d3576101d261081a565b5b8160020160009054906101000a900460ff1660028111156101f7576101f661081a565b5b14610237576040517f08c379a000000000000000000000000000000000000000000000000000000000815260040161022e906108d5565b60405180910390fd5b82600101829080600181540180825580915050600190039060005260206000200160009091909190916101000a81548173ffffffffffffffffffffffffffffffffffffffff021916908373ffffffffffffffffffffffffffffffffffffffff160217905550505050565b6102a961070a565b60006102c8603460ff16604051806020016040528060008152506102e7565b905060405180602001604052806102de836103d6565b81525091505090565b606060008073010000000000000000000000000000000000000173ffffffffffffffffffffffffffffffffffffffff16858560405160200161032a92919061099d565b6040516020818303038152906040526040516103469190610a09565b600060405180830381855afa9150503d8060008114610381576040519150601f19603f3d011682016040523d82523d6000602084013e610386565b606091505b5091509150816103cb576040517f08c379a00000000000000000000000000000000000000000000000000000000081526004016103c290610a6c565b60405180910390fd5b809250505092915050565b6060603460ff1682511461041f576040517f08c379a000000000000000000000000000000000000000000000000000000000815260040161041690610ad8565b60405180910390fd5b6000603460ff1667ffffffffffffffff81111561043f5761043e610849565b5b6040519080825280601f01601f1916602001820160405280156104715781602001600182028036833780820191505090505b509050600080600090505b84518110156105b957600085828151811061049a57610499610af8565b5b602001015160f81c60f81b60f81c90505b6001156105615760008060d01b8260ff16600160001b79ffffffffffffffffffffffffffffffffffffffffffffffffffff1916901b851679ffffffffffffffffffffffffffffffffffffffffffffffffffff19161415905080156105295760346001836105189190610b34565b6105229190610b9a565b915061055b565b8160ff16600160001b79ffffffffffffffffffffffffffffffffffffffffffffffffffff1916901b8417935050610561565b506104ab565b8060f81b84838151811061057857610577610af8565b5b60200101907effffffffffffffffffffffffffffffffffffffffffffffffffffffffffffff1916908160001a90535050806105b2906107d1565b905061047c565b505050919050565b8280546105cd90610bfa565b90600052602060002090601f0160209004810192826105ef5760008555610636565b82601f1061060857805160ff1916838001178555610636565b82800160010185558215610636579182015b8281111561063557825182559160200191906001019061061a565b5b509050610643919061071d565b5090565b8280548282559060005260206000209081019282156106c0579160200282015b828111156106bf5782518260006101000a81548173ffffffffffffffffffffffffffffffffffffffff021916908373ffffffffffffffffffffffffffffffffffffffff16021790555091602001919060010190610667565b5b5090506106cd919061071d565b5090565b60405180606001604052806106e461070a565b815260200160608152602001600060028111156107045761070361081a565b5b81525090565b6040518060200160405280606081525090565b5b8082111561073657600081600090555060010161071e565b5090565b600080fd5b6000819050919050565b6107528161073f565b811461075d57600080fd5b50565b60008135905061076f81610749565b92915050565b60006020828403121561078b5761078a61073a565b5b600061079984828501610760565b91505092915050565b7f4e487b7100000000000000000000000000000000000000000000000000000000600052601160045260246000fd5b60006107dc8261073f565b91507fffffffffffffffffffffffffffffffffffffffffffffffffffffffffffffffff82141561080f5761080e6107a2565b5b600182019050919050565b7f4e487b7100000000000000000000000000000000000000000000000000000000600052602160045260246000fd5b7f4e487b7100000000000000000000000000000000000000000000000000000000600052604160045260246000fd5b600082825260208201905092915050565b7f47616d65206973206e6f742070656e64696e6700000000000000000000000000600082015250565b60006108bf601383610878565b91506108ca82610889565b602082019050919050565b600060208201905081810360008301526108ee816108b2565b9050919050565b6108fe8161073f565b82525050565b600081519050919050565b600082825260208201905092915050565b60005b8381101561093e578082015181840152602081019050610923565b8381111561094d576000848401525b50505050565b6000601f19601f8301169050919050565b600061096f82610904565b610979818561090f565b9350610989818560208601610920565b61099281610953565b840191505092915050565b60006040820190506109b260008301856108f5565b81810360208301526109c48184610964565b90509392505050565b600081905092915050565b60006109e382610904565b6109ed81856109cd565b93506109fd818560208601610920565b80840191505092915050565b6000610a1582846109d8565b915081905092915050565b7f72616e646f6d42797465733a206661696c656400000000000000000000000000600082015250565b6000610a56601383610878565b9150610a6182610a20565b602082019050919050565b60006020820190508181036000830152610a8581610a49565b9050919050565b7f496e76616c69642072616e646f6d206279746573206c656e6774680000000000600082015250565b6000610ac2601b83610878565b9150610acd82610a8c565b602082019050919050565b60006020820190508181036000830152610af181610ab5565b9050919050565b7f4e487b7100000000000000000000000000000000000000000000000000000000600052603260045260246000fd5b600060ff82169050919050565b6000610b3f82610b27565b9150610b4a83610b27565b92508260ff03821115610b6057610b5f6107a2565b5b828201905092915050565b7f4e487b7100000000000000000000000000000000000000000000000000000000600052601260045260246000fd5b6000610ba582610b27565b9150610bb083610b27565b925082610bc057610bbf610b6b565b5b828206905092915050565b7f4e487b7100000000000000000000000000000000000000000000000000000000600052602260045260246000fd5b60006002820490506001821680610c1257607f821691505b60208210811415610c2657610c25610bcb565b5b5091905056fea264697066735822122009bf4507d58f36ca9b249accb971a0b03629c50444feea6388df4a4e6a06fce464736f6c63430008090033","opcodes":"PUSH1 0x80 PUSH1 0x40 MSTORE PUSH1 0x0 DUP1 SSTORE CALLVALUE DUP1 ISZERO PUSH2 0x14 JUMPI PUSH1 0x0 DUP1 REVERT JUMPDEST POP PUSH2 0xC62 DUP1 PUSH2 0x24 PUSH1 0x0 CODECOPY PUSH1 0x0 RETURN INVALID PUSH1 0x80 PUSH1 0x40 MSTORE CALLVALUE DUP1 ISZERO PUSH2 0x10 JUMPI PUSH1 0x0 DUP1 REVERT JUMPDEST POP PUSH1 0x4 CALLDATASIZE LT PUSH2 0x36 JUMPI PUSH1 0x0 CALLDATALOAD PUSH1 0xE0 SHR DUP1 PUSH4 0x7255D729 EQ PUSH2 0x3B JUMPI DUP1 PUSH4 0xEFAA55A0 EQ PUSH2 0x45 JUMPI JUMPDEST PUSH1 0x0 DUP1 REVERT JUMPDEST PUSH2 0x43 PUSH2 0x61 JUMP JUMPDEST STOP JUMPDEST PUSH2 0x5F PUSH1 0x4 DUP1 CALLDATASIZE SUB DUP2 ADD SWAP1 PUSH2 0x5A SWAP2 SWAP1 PUSH2 0x775 JUMP JUMPDEST PUSH2 0x10B JUMP JUMPDEST STOP JUMPDEST PUSH2 0x69 PUSH2 0x133 JUMP JUMPDEST PUSH1 0x1 PUSH1 0x0 DUP1 PUSH1 0x0 DUP2 SLOAD DUP1 SWAP3 SWAP2 SWAP1 PUSH2 0x7F SWAP1 PUSH2 0x7D1 JUMP JUMPDEST SWAP2 SWAP1 POP SSTORE DUP2 MSTORE PUSH1 0x20 ADD SWAP1 DUP2 MSTORE PUSH1 0x20 ADD PUSH1 0x0 KECCAK256 PUSH1 0x0 DUP3 ADD MLOAD DUP2 PUSH1 0x0 ADD PUSH1 0x0 DUP3 ADD MLOAD DUP2 PUSH1 0x0 ADD SWAP1 DUP1 MLOAD SWAP1 PUSH1 0x20 ADD SWAP1 PUSH2 0xB6 SWAP3 SWAP2 SWAP1 PUSH2 0x5C1 JUMP JUMPDEST POP POP POP PUSH1 0x20 DUP3 ADD MLOAD DUP2 PUSH1 0x1 ADD SWAP1 DUP1 MLOAD SWAP1 PUSH1 0x20 ADD SWAP1 PUSH2 0xD5 SWAP3 SWAP2 SWAP1 PUSH2 0x647 JUMP JUMPDEST POP PUSH1 0x40 DUP3 ADD MLOAD DUP2 PUSH1 0x2 ADD PUSH1 0x0 PUSH2 0x100 EXP DUP2 SLOAD DUP2 PUSH1 0xFF MUL NOT AND SWAP1 DUP4 PUSH1 0x2 DUP2 GT ISZERO PUSH2 0x101 JUMPI PUSH2 0x100 PUSH2 0x81A JUMP JUMPDEST JUMPDEST MUL OR SWAP1 SSTORE POP SWAP1 POP POP JUMP JUMPDEST PUSH2 0x130 CALLER PUSH1 0x1 PUSH1 0x0 DUP5 DUP2 MSTORE PUSH1 0x20 ADD SWAP1 DUP2 MSTORE PUSH1 0x20 ADD PUSH1 0x0 KECCAK256 PUSH2 0x1BE SWAP1 SWAP2 SWAP1 PUSH4 0xFFFFFFFF AND JUMP JUMPDEST POP JUMP JUMPDEST PUSH2 0x13B PUSH2 0x6D1 JUMP JUMPDEST PUSH1 0x40 MLOAD DUP1 PUSH1 0x60 ADD PUSH1 0x40 MSTORE DUP1 PUSH2 0x14E PUSH2 0x2A1 JUMP JUMPDEST DUP2 MSTORE PUSH1 0x20 ADD PUSH1 0x0 PUSH8 0xFFFFFFFFFFFFFFFF DUP2 GT ISZERO PUSH2 0x16E JUMPI PUSH2 0x16D PUSH2 0x849 JUMP JUMPDEST JUMPDEST PUSH1 0x40 MLOAD SWAP1 DUP1 DUP3 MSTORE DUP1 PUSH1 0x20 MUL PUSH1 0x20 ADD DUP3 ADD PUSH1 0x40 MSTORE DUP1 ISZERO PUSH2 0x19C JUMPI DUP2 PUSH1 0x20 ADD PUSH1 0x20 DUP3 MUL DUP1 CALLDATASIZE DUP4 CALLDATACOPY DUP1 DUP3 ADD SWAP2 POP POP SWAP1 POP JUMPDEST POP DUP2 MSTORE PUSH1 0x20 ADD PUSH1 0x0 PUSH1 0x2 DUP2 GT ISZERO PUSH2 0x1B6 JUMPI PUSH2 0x1B5 PUSH2 0x81A JUMP JUMPDEST JUMPDEST DUP2 MSTORE POP SWAP1 POP SWAP1 JUMP JUMPDEST DUP2 PUSH1 0x0 PUSH1 0x2 DUP2 GT ISZERO PUSH2 0x1D3 JUMPI PUSH2 0x1D2 PUSH2 0x81A JUMP JUMPDEST JUMPDEST DUP2 PUSH1 0x2 ADD PUSH1 0x0 SWAP1 SLOAD SWAP1 PUSH2 0x100 EXP SWAP1 DIV PUSH1 0xFF AND PUSH1 0x2 DUP2 GT ISZERO PUSH2 0x1F7 JUMPI PUSH2 0x1F6 PUSH2 0x81A JUMP JUMPDEST JUMPDEST EQ PUSH2 0x237 JUMPI PUSH1 0x40 MLOAD PUSH32 0x8C379A000000000000000000000000000000000000000000000000000000000 DUP2 MSTORE PUSH1 0x4 ADD PUSH2 0x22E SWAP1 PUSH2 0x8D5 JUMP JUMPDEST PUSH1 0x40 MLOAD DUP1 SWAP2 SUB SWAP1 REVERT JUMPDEST DUP3 PUSH1 0x1 ADD DUP3 SWAP1 DUP1 PUSH1 0x1 DUP2 SLOAD ADD DUP1 DUP3 SSTORE DUP1 SWAP2 POP POP PUSH1 0x1 SWAP1 SUB SWAP1 PUSH1 0x0 MSTORE PUSH1 0x20 PUSH1 0x0 KECCAK256 ADD PUSH1 0x0 SWAP1 SWAP2 SWAP1 SWAP2 SWAP1 SWAP2 PUSH2 0x100 EXP DUP2 SLOAD DUP2 PUSH20 0xFFFFFFFFFFFFFFFFFFFFFFFFFFFFFFFFFFFFFFFF MUL NOT AND SWAP1 DUP4 PUSH20 0xFFFFFFFFFFFFFFFFFFFFFFFFFFFFFFFFFFFFFFFF AND MUL OR SWAP1 SSTORE POP POP POP POP JUMP JUMPDEST PUSH2 0x2A9 PUSH2 0x70A JUMP JUMPDEST PUSH1 0x0 PUSH2 0x2C8 PUSH1 0x34 PUSH1 0xFF AND PUSH1 0x40 MLOAD DUP1 PUSH1 0x20 ADD PUSH1 0x40 MSTORE DUP1 PUSH1 0x0 DUP2 MSTORE POP PUSH2 0x2E7 JUMP JUMPDEST SWAP1 POP PUSH1 0x40 MLOAD DUP1 PUSH1 0x20 ADD PUSH1 0x40 MSTORE DUP1 PUSH2 0x2DE DUP4 PUSH2 0x3D6 JUMP JUMPDEST DUP2 MSTORE POP SWAP2 POP POP SWAP1 JUMP JUMPDEST PUSH1 0x60 PUSH1 0x0 DUP1 PUSH20 0x100000000000000000000000000000000000001 PUSH20 0xFFFFFFFFFFFFFFFFFFFFFFFFFFFFFFFFFFFFFFFF AND DUP6 DUP6 PUSH1 0x40 MLOAD PUSH1 0x20 ADD PUSH2 0x32A SWAP3 SWAP2 SWAP1 PUSH2 0x99D JUMP JUMPDEST PUSH1 0x40 MLOAD PUSH1 0x20 DUP2 DUP4 SUB SUB DUP2 MSTORE SWAP1 PUSH1 0x40 MSTORE PUSH1 0x40 MLOAD PUSH2 0x346 SWAP2 SWAP1 PUSH2 0xA09 JUMP JUMPDEST PUSH1 0x0 PUSH1 0x40 MLOAD DUP1 DUP4 SUB DUP2 DUP6 GAS STATICCALL SWAP2 POP POP RETURNDATASIZE DUP1 PUSH1 0x0 DUP2 EQ PUSH2 0x381 JUMPI PUSH1 0x40 MLOAD SWAP2 POP PUSH1 0x1F NOT PUSH1 0x3F RETURNDATASIZE ADD AND DUP3 ADD PUSH1 0x40 MSTORE RETURNDATASIZE DUP3 MSTORE RETURNDATASIZE PUSH1 0x0 PUSH1 0x20 DUP5 ADD RETURNDATACOPY PUSH2 0x386 JUMP JUMPDEST PUSH1 0x60 SWAP2 POP JUMPDEST POP SWAP2 POP SWAP2 POP DUP2 PUSH2 0x3CB JUMPI PUSH1 0x40 MLOAD PUSH32 0x8C379A000000000000000000000000000000000000000000000000000000000 DUP2 MSTORE PUSH1 0x4 ADD PUSH2 0x3C2 SWAP1 PUSH2 0xA6C JUMP JUMPDEST PUSH1 0x40 MLOAD DUP1 SWAP2 SUB SWAP1 REVERT JUMPDEST DUP1 SWAP3 POP POP POP SWAP3 SWAP2 POP POP JUMP JUMPDEST PUSH1 0x60 PUSH1 0x34 PUSH1 0xFF AND DUP3 MLOAD EQ PUSH2 0x41F JUMPI PUSH1 0x40 MLOAD PUSH32 0x8C379A000000000000000000000000000000000000000000000000000000000 DUP2 MSTORE PUSH1 0x4 ADD PUSH2 0x416 SWAP1 PUSH2 0xAD8 JUMP JUMPDEST PUSH1 0x40 MLOAD DUP1 SWAP2 SUB SWAP1 REVERT JUMPDEST PUSH1 0x0 PUSH1 0x34 PUSH1 0xFF AND PUSH8 0xFFFFFFFFFFFFFFFF DUP2 GT ISZERO PUSH2 0x43F JUMPI PUSH2 0x43E PUSH2 0x849 JUMP JUMPDEST JUMPDEST PUSH1 0x40 MLOAD SWAP1 DUP1 DUP3 MSTORE DUP1 PUSH1 0x1F ADD PUSH1 0x1F NOT AND PUSH1 0x20 ADD DUP3 ADD PUSH1 0x40 MSTORE DUP1 ISZERO PUSH2 0x471 JUMPI DUP2 PUSH1 0x20 ADD PUSH1 0x1 DUP3 MUL DUP1 CALLDATASIZE DUP4 CALLDATACOPY DUP1 DUP3 ADD SWAP2 POP POP SWAP1 POP JUMPDEST POP SWAP1 POP PUSH1 0x0 DUP1 PUSH1 0x0 SWAP1 POP JUMPDEST DUP5 MLOAD DUP2 LT ISZERO PUSH2 0x5B9 JUMPI PUSH1 0x0 DUP6 DUP3 DUP2 MLOAD DUP2 LT PUSH2 0x49A JUMPI PUSH2 0x499 PUSH2 0xAF8 JUMP JUMPDEST JUMPDEST PUSH1 0x20 ADD ADD MLOAD PUSH1 0xF8 SHR PUSH1 0xF8 SHL PUSH1 0xF8 SHR SWAP1 POP JUMPDEST PUSH1 0x1 ISZERO PUSH2 0x561 JUMPI PUSH1 0x0 DUP1 PUSH1 0xD0 SHL DUP3 PUSH1 0xFF AND PUSH1 0x1 PUSH1 0x0 SHL PUSH26 0xFFFFFFFFFFFFFFFFFFFFFFFFFFFFFFFFFFFFFFFFFFFFFFFFFFFF NOT AND SWAP1 SHL DUP6 AND PUSH26 0xFFFFFFFFFFFFFFFFFFFFFFFFFFFFFFFFFFFFFFFFFFFFFFFFFFFF NOT AND EQ ISZERO SWAP1 POP DUP1 ISZERO PUSH2 0x529 JUMPI PUSH1 0x34 PUSH1 0x1 DUP4 PUSH2 0x518 SWAP2 SWAP1 PUSH2 0xB34 JUMP JUMPDEST PUSH2 0x522 SWAP2 SWAP1 PUSH2 0xB9A JUMP JUMPDEST SWAP2 POP PUSH2 0x55B JUMP JUMPDEST DUP2 PUSH1 0xFF AND PUSH1 0x1 PUSH1 0x0 SHL PUSH26 0xFFFFFFFFFFFFFFFFFFFFFFFFFFFFFFFFFFFFFFFFFFFFFFFFFFFF NOT AND SWAP1 SHL DUP5 OR SWAP4 POP POP PUSH2 0x561 JUMP JUMPDEST POP PUSH2 0x4AB JUMP JUMPDEST DUP1 PUSH1 0xF8 SHL DUP5 DUP4 DUP2 MLOAD DUP2 LT PUSH2 0x578 JUMPI PUSH2 0x577 PUSH2 0xAF8 JUMP JUMPDEST JUMPDEST PUSH1 0x20 ADD ADD SWAP1 PUSH31 0xFFFFFFFFFFFFFFFFFFFFFFFFFFFFFFFFFFFFFFFFFFFFFFFFFFFFFFFFFFFFFF NOT AND SWAP1 DUP2 PUSH1 0x0 BYTE SWAP1 MSTORE8 POP POP DUP1 PUSH2 0x5B2 SWAP1 PUSH2 0x7D1 JUMP JUMPDEST SWAP1 POP PUSH2 0x47C JUMP JUMPDEST POP POP POP SWAP2 SWAP1 POP JUMP JUMPDEST DUP3 DUP1 SLOAD PUSH2 0x5CD SWAP1 PUSH2 0xBFA JUMP JUMPDEST SWAP1 PUSH1 0x0 MSTORE PUSH1 0x20 PUSH1 0x0 KECCAK256 SWAP1 PUSH1 0x1F ADD PUSH1 0x20 SWAP1 DIV DUP2 ADD SWAP3 DUP3 PUSH2 0x5EF JUMPI PUSH1 0x0 DUP6 SSTORE PUSH2 0x636 JUMP JUMPDEST DUP3 PUSH1 0x1F LT PUSH2 0x608 JUMPI DUP1 MLOAD PUSH1 0xFF NOT AND DUP4 DUP1 ADD OR DUP6 SSTORE PUSH2 0x636 JUMP JUMPDEST DUP3 DUP1 ADD PUSH1 0x1 ADD DUP6 SSTORE DUP3 ISZERO PUSH2 0x636 JUMPI SWAP2 DUP3 ADD JUMPDEST DUP3 DUP2 GT ISZERO PUSH2 0x635 JUMPI DUP3 MLOAD DUP3 SSTORE SWAP2 PUSH1 0x20 ADD SWAP2 SWAP1 PUSH1 0x1 ADD SWAP1 PUSH2 0x61A JUMP JUMPDEST JUMPDEST POP SWAP1 POP PUSH2 0x643 SWAP2 SWAP1 PUSH2 0x71D JUMP JUMPDEST POP SWAP1 JUMP JUMPDEST DUP3 DUP1 SLOAD DUP3 DUP3 SSTORE SWAP1 PUSH1 0x0 MSTORE PUSH1 0x20 PUSH1 0x0 KECCAK256 SWAP1 DUP2 ADD SWAP3 DUP3 ISZERO PUSH2 0x6C0 JUMPI SWAP2 PUSH1 0x20 MUL DUP3 ADD JUMPDEST DUP3 DUP2 GT ISZERO PUSH2 0x6BF JUMPI DUP3 MLOAD DUP3 PUSH1 0x0 PUSH2 0x100 EXP DUP2 SLOAD DUP2 PUSH20 0xFFFFFFFFFFFFFFFFFFFFFFFFFFFFFFFFFFFFFFFF MUL NOT AND SWAP1 DUP4 PUSH20 0xFFFFFFFFFFFFFFFFFFFFFFFFFFFFFFFFFFFFFFFF AND MUL OR SWAP1 SSTORE POP SWAP2 PUSH1 0x20 ADD SWAP2 SWAP1 PUSH1 0x1 ADD SWAP1 PUSH2 0x667 JUMP JUMPDEST JUMPDEST POP SWAP1 POP PUSH2 0x6CD SWAP2 SWAP1 PUSH2 0x71D JUMP JUMPDEST POP SWAP1 JUMP JUMPDEST PUSH1 0x40 MLOAD DUP1 PUSH1 0x60 ADD PUSH1 0x40 MSTORE DUP1 PUSH2 0x6E4 PUSH2 0x70A JUMP JUMPDEST DUP2 MSTORE PUSH1 0x20 ADD PUSH1 0x60 DUP2 MSTORE PUSH1 0x20 ADD PUSH1 0x0 PUSH1 0x2 DUP2 GT ISZERO PUSH2 0x704 JUMPI PUSH2 0x703 PUSH2 0x81A JUMP JUMPDEST JUMPDEST DUP2 MSTORE POP SWAP1 JUMP JUMPDEST PUSH1 0x40 MLOAD DUP1 PUSH1 0x20 ADD PUSH1 0x40 MSTORE DUP1 PUSH1 0x60 DUP2 MSTORE POP SWAP1 JUMP JUMPDEST JUMPDEST DUP1 DUP3 GT ISZERO PUSH2 0x736 JUMPI PUSH1 0x0 DUP2 PUSH1 0x0 SWAP1 SSTORE POP PUSH1 0x1 ADD PUSH2 0x71E JUMP JUMPDEST POP SWAP1 JUMP JUMPDEST PUSH1 0x0 DUP1 REVERT JUMPDEST PUSH1 0x0 DUP2 SWAP1 POP SWAP2 SWAP1 POP JUMP JUMPDEST PUSH2 0x752 DUP2 PUSH2 0x73F JUMP JUMPDEST DUP2 EQ PUSH2 0x75D JUMPI PUSH1 0x0 DUP1 REVERT JUMPDEST POP JUMP JUMPDEST PUSH1 0x0 DUP2 CALLDATALOAD SWAP1 POP PUSH2 0x76F DUP2 PUSH2 0x749 JUMP JUMPDEST SWAP3 SWAP2 POP POP JUMP JUMPDEST PUSH1 0x0 PUSH1 0x20 DUP3 DUP5 SUB SLT ISZERO PUSH2 0x78B JUMPI PUSH2 0x78A PUSH2 0x73A JUMP JUMPDEST JUMPDEST PUSH1 0x0 PUSH2 0x799 DUP5 DUP3 DUP6 ADD PUSH2 0x760 JUMP JUMPDEST SWAP2 POP POP SWAP3 SWAP2 POP POP JUMP JUMPDEST PUSH32 0x4E487B7100000000000000000000000000000000000000000000000000000000 PUSH1 0x0 MSTORE PUSH1 0x11 PUSH1 0x4 MSTORE PUSH1 0x24 PUSH1 0x0 REVERT JUMPDEST PUSH1 0x0 PUSH2 0x7DC DUP3 PUSH2 0x73F JUMP JUMPDEST SWAP2 POP PUSH32 0xFFFFFFFFFFFFFFFFFFFFFFFFFFFFFFFFFFFFFFFFFFFFFFFFFFFFFFFFFFFFFFFF DUP3 EQ ISZERO PUSH2 0x80F JUMPI PUSH2 0x80E PUSH2 0x7A2 JUMP JUMPDEST JUMPDEST PUSH1 0x1 DUP3 ADD SWAP1 POP SWAP2 SWAP1 POP JUMP JUMPDEST PUSH32 0x4E487B7100000000000000000000000000000000000000000000000000000000 PUSH1 0x0 MSTORE PUSH1 0x21 PUSH1 0x4 MSTORE PUSH1 0x24 PUSH1 0x0 REVERT JUMPDEST PUSH32 0x4E487B7100000000000000000000000000000000000000000000000000000000 PUSH1 0x0 MSTORE PUSH1 0x41 PUSH1 0x4 MSTORE PUSH1 0x24 PUSH1 0x0 REVERT JUMPDEST PUSH1 0x0 DUP3 DUP3 MSTORE PUSH1 0x20 DUP3 ADD SWAP1 POP SWAP3 SWAP2 POP POP JUMP JUMPDEST PUSH32 0x47616D65206973206E6F742070656E64696E6700000000000000000000000000 PUSH1 0x0 DUP3 ADD MSTORE POP JUMP JUMPDEST PUSH1 0x0 PUSH2 0x8BF PUSH1 0x13 DUP4 PUSH2 0x878 JUMP JUMPDEST SWAP2 POP PUSH2 0x8CA DUP3 PUSH2 0x889 JUMP JUMPDEST PUSH1 0x20 DUP3 ADD SWAP1 POP SWAP2 SWAP1 POP JUMP JUMPDEST PUSH1 0x0 PUSH1 0x20 DUP3 ADD SWAP1 POP DUP2 DUP2 SUB PUSH1 0x0 DUP4 ADD MSTORE PUSH2 0x8EE DUP2 PUSH2 0x8B2 JUMP JUMPDEST SWAP1 POP SWAP2 SWAP1 POP JUMP JUMPDEST PUSH2 0x8FE DUP2 PUSH2 0x73F JUMP JUMPDEST DUP3 MSTORE POP POP JUMP JUMPDEST PUSH1 0x0 DUP2 MLOAD SWAP1 POP SWAP2 SWAP1 POP JUMP JUMPDEST PUSH1 0x0 DUP3 DUP3 MSTORE PUSH1 0x20 DUP3 ADD SWAP1 POP SWAP3 SWAP2 POP POP JUMP JUMPDEST PUSH1 0x0 JUMPDEST DUP4 DUP2 LT ISZERO PUSH2 0x93E JUMPI DUP1 DUP3 ADD MLOAD DUP2 DUP5 ADD MSTORE PUSH1 0x20 DUP2 ADD SWAP1 POP PUSH2 0x923 JUMP JUMPDEST DUP4 DUP2 GT ISZERO PUSH2 0x94D JUMPI PUSH1 0x0 DUP5 DUP5 ADD MSTORE JUMPDEST POP POP POP POP JUMP JUMPDEST PUSH1 0x0 PUSH1 0x1F NOT PUSH1 0x1F DUP4 ADD AND SWAP1 POP SWAP2 SWAP1 POP JUMP JUMPDEST PUSH1 0x0 PUSH2 0x96F DUP3 PUSH2 0x904 JUMP JUMPDEST PUSH2 0x979 DUP2 DUP6 PUSH2 0x90F JUMP JUMPDEST SWAP4 POP PUSH2 0x989 DUP2 DUP6 PUSH1 0x20 DUP7 ADD PUSH2 0x920 JUMP JUMPDEST PUSH2 0x992 DUP2 PUSH2 0x953 JUMP JUMPDEST DUP5 ADD SWAP2 POP POP SWAP3 SWAP2 POP POP JUMP JUMPDEST PUSH1 0x0 PUSH1 0x40 DUP3 ADD SWAP1 POP PUSH2 0x9B2 PUSH1 0x0 DUP4 ADD DUP6 PUSH2 0x8F5 JUMP JUMPDEST DUP2 DUP2 SUB PUSH1 0x20 DUP4 ADD MSTORE PUSH2 0x9C4 DUP2 DUP5 PUSH2 0x964 JUMP JUMPDEST SWAP1 POP SWAP4 SWAP3 POP POP POP JUMP JUMPDEST PUSH1 0x0 DUP2 SWAP1 POP SWAP3 SWAP2 POP POP JUMP JUMPDEST PUSH1 0x0 PUSH2 0x9E3 DUP3 PUSH2 0x904 JUMP JUMPDEST PUSH2 0x9ED DUP2 DUP6 PUSH2 0x9CD JUMP JUMPDEST SWAP4 POP PUSH2 0x9FD DUP2 DUP6 PUSH1 0x20 DUP7 ADD PUSH2 0x920 JUMP JUMPDEST DUP1 DUP5 ADD SWAP2 POP POP SWAP3 SWAP2 POP POP JUMP JUMPDEST PUSH1 0x0 PUSH2 0xA15 DUP3 DUP5 PUSH2 0x9D8 JUMP JUMPDEST SWAP2 POP DUP2 SWAP1 POP SWAP3 SWAP2 POP POP JUMP JUMPDEST PUSH32 0x72616E646F6D42797465733A206661696C656400000000000000000000000000 PUSH1 0x0 DUP3 ADD MSTORE POP JUMP JUMPDEST PUSH1 0x0 PUSH2 0xA56 PUSH1 0x13 DUP4 PUSH2 0x878 JUMP JUMPDEST SWAP2 POP PUSH2 0xA61 DUP3 PUSH2 0xA20 JUMP JUMPDEST PUSH1 0x20 DUP3 ADD SWAP1 POP SWAP2 SWAP1 POP JUMP JUMPDEST PUSH1 0x0 PUSH1 0x20 DUP3 ADD SWAP1 POP DUP2 DUP2 SUB PUSH1 0x0 DUP4 ADD MSTORE PUSH2 0xA85 DUP2 PUSH2 0xA49 JUMP JUMPDEST SWAP1 POP SWAP2 SWAP1 POP JUMP JUMPDEST PUSH32 0x496E76616C69642072616E646F6D206279746573206C656E6774680000000000 PUSH1 0x0 DUP3 ADD MSTORE POP JUMP JUMPDEST PUSH1 0x0 PUSH2 0xAC2 PUSH1 0x1B DUP4 PUSH2 0x878 JUMP JUMPDEST SWAP2 POP PUSH2 0xACD DUP3 PUSH2 0xA8C JUMP JUMPDEST PUSH1 0x20 DUP3 ADD SWAP1 POP SWAP2 SWAP1 POP JUMP JUMPDEST PUSH1 0x0 PUSH1 0x20 DUP3 ADD SWAP1 POP DUP2 DUP2 SUB PUSH1 0x0 DUP4 ADD MSTORE PUSH2 0xAF1 DUP2 PUSH2 0xAB5 JUMP JUMPDEST SWAP1 POP SWAP2 SWAP1 POP JUMP JUMPDEST PUSH32 0x4E487B7100000000000000000000000000000000000000000000000000000000 PUSH1 0x0 MSTORE PUSH1 0x32 PUSH1 0x4 MSTORE PUSH1 0x24 PUSH1 0x0 REVERT JUMPDEST PUSH1 0x0 PUSH1 0xFF DUP3 AND SWAP1 POP SWAP2 SWAP1 POP JUMP JUMPDEST PUSH1 0x0 PUSH2 0xB3F DUP3 PUSH2 0xB27 JUMP JUMPDEST SWAP2 POP PUSH2 0xB4A DUP4 PUSH2 0xB27 JUMP JUMPDEST SWAP3 POP DUP3 PUSH1 0xFF SUB DUP3 GT ISZERO PUSH2 0xB60 JUMPI PUSH2 0xB5F PUSH2 0x7A2 JUMP JUMPDEST JUMPDEST DUP3 DUP3 ADD SWAP1 POP SWAP3 SWAP2 POP POP JUMP JUMPDEST PUSH32 0x4E487B7100000000000000000000000000000000000000000000000000000000 PUSH1 0x0 MSTORE PUSH1 0x12 PUSH1 0x4 MSTORE PUSH1 0x24 PUSH1 0x0 REVERT JUMPDEST PUSH1 0x0 PUSH2 0xBA5 DUP3 PUSH2 0xB27 JUMP JUMPDEST SWAP2 POP PUSH2 0xBB0 DUP4 PUSH2 0xB27 JUMP JUMPDEST SWAP3 POP DUP3 PUSH2 0xBC0 JUMPI PUSH2 0xBBF PUSH2 0xB6B JUMP JUMPDEST JUMPDEST DUP3 DUP3 MOD SWAP1 POP SWAP3 SWAP2 POP POP JUMP JUMPDEST PUSH32 0x4E487B7100000000000000000000000000000000000000000000000000000000 PUSH1 0x0 MSTORE PUSH1 0x22 PUSH1 0x4 MSTORE PUSH1 0x24 PUSH1 0x0 REVERT JUMPDEST PUSH1 0x0 PUSH1 0x2 DUP3 DIV SWAP1 POP PUSH1 0x1 DUP3 AND DUP1 PUSH2 0xC12 JUMPI PUSH1 0x7F DUP3 AND SWAP2 POP JUMPDEST PUSH1 0x20 DUP3 LT DUP2 EQ ISZERO PUSH2 0xC26 JUMPI PUSH2 0xC25 PUSH2 0xBCB JUMP JUMPDEST JUMPDEST POP SWAP2 SWAP1 POP JUMP INVALID LOG2 PUSH5 0x6970667358 0x22 SLT KECCAK256 MULMOD 0xBF GASLIMIT SMOD 0xD5 DUP16 CALLDATASIZE 0xCA SWAP12 0x24 SWAP11 0xCC 0xB9 PUSH18 0xA0B03629C50444FEEA6388DF4A4E6A06FCE4 PUSH5 0x736F6C6343 STOP ADDMOD MULMOD STOP CALLER "},"methodIdentifiers":{"createGame()":"7255d729","joinGame(uint256)":"efaa55a0"}}}}}