{
  "_format": "hh-sol-artifact-1",
  "contractName": "Poker",
  "sourceName": "contracts/Poker.sol",
  "abi": [
    {
      "inputs": [],
      "name": "createGame",
      "outputs": [],
      "stateMutability": "nonpayable",
      "type": "function"
    },
    {
      "inputs": [
        {
          "internalType": "uint256",
          "name": "",
          "type": "uint256"
        }
      ],
      "name": "gameToDeck",
      "outputs": [
        {
          "components": [
            {
              "internalType": "bytes",
              "name": "indices",
              "type": "bytes"
            }
          ],
          "internalType": "struct Deck",
          "name": "deck",
          "type": "tuple"
        },
        {
          "internalType": "enum GameStatus",
          "name": "status",
          "type": "uint8"
        }
      ],
      "stateMutability": "view",
      "type": "function"
    },
    {
      "inputs": [
        {
          "internalType": "uint256",
          "name": "gameId",
          "type": "uint256"
        }
      ],
      "name": "joinGame",
      "outputs": [],
      "stateMutability": "nonpayable",
      "type": "function"
    },
    {
      "inputs": [
        {
          "internalType": "uint256",
          "name": "gameId",
          "type": "uint256"
        }
      ],
      "name": "nextCard",
      "outputs": [
        {
          "components": [
            {
              "internalType": "enum Suit",
              "name": "suit",
              "type": "uint8"
            },
            {
              "internalType": "enum Rank",
              "name": "rank",
              "type": "uint8"
            }
          ],
          "internalType": "struct Card",
          "name": "",
          "type": "tuple"
        }
      ],
      "stateMutability": "nonpayable",
      "type": "function"
    }
  ],
  "bytecode": "0x60806040526000805534801561001457600080fd5b50611113806100246000396000f3fe608060405234801561001057600080fd5b506004361061004c5760003560e01c80632cc92375146100515780637255d72914610082578063efaa55a01461008c578063fb79e718146100a8575b600080fd5b61006b60048036038101906100669190610ad7565b6100d8565b604051610079929190610c3e565b60405180910390f35b61008a6101a5565b005b6100a660048036038101906100a19190610ad7565b61024f565b005b6100c260048036038101906100bd9190610ad7565b610277565b6040516100cf9190610d2d565b60405180910390f35b60016020528060005260406000206000915090508060000160405180602001604052908160008201805461010b90610d77565b80601f016020809104026020016040519081016040528092919081815260200182805461013790610d77565b80156101845780601f1061015957610100808354040283529160200191610184565b820191906000526020600020905b81548152906001019060200180831161016757829003601f168201915b505050505081525050908060020160009054906101000a900460ff16905082565b6101ad6102aa565b600160008060008154809291906101c390610dd8565b91905055815260200190815260200160002060008201518160000160008201518160000190805190602001906101fa9291906108e5565b505050602082015181600101908051906020019061021992919061096b565b5060408201518160020160006101000a81548160ff0219169083600281111561024557610244610bc7565b5b0217905550905050565b610274336001600084815260200190815260200160002061033590919063ffffffff16565b50565b61027f6109f5565b60006001600084815260200190815260200160002090506102a281600001610418565b915050919050565b6102b2610a33565b60405180606001604052806102c5610568565b8152602001600067ffffffffffffffff8111156102e5576102e4610e21565b5b6040519080825280602002602001820160405280156103135781602001602082028036833780820191505090505b5081526020016000600281111561032d5761032c610bc7565b5b815250905090565b816000600281111561034a57610349610bc7565b5b8160020160009054906101000a900460ff16600281111561036e5761036d610bc7565b5b146103ae576040517f08c379a00000000000000000000000000000000000000000000000000000000081526004016103a590610ead565b60405180910390fd5b82600101829080600181540180825580915050600190039060005260206000200160009091909190916101000a81548173ffffffffffffffffffffffffffffffffffffffff021916908373ffffffffffffffffffffffffffffffffffffffff160217905550505050565b6104206109f5565b600082600001805461043190610d77565b905011610473576040517f08c379a000000000000000000000000000000000000000000000000000000000815260040161046a90610f19565b60405180910390fd5b600082600001805461048490610d77565b80601f01602080910402602001604051908101604052809291908181526020018280546104b090610d77565b80156104fd5780601f106104d2576101008083540402835291602001916104fd565b820191906000526020600020905b8154815290600101906020018083116104e057829003601f168201915b50505050509050600081600183516105159190610f39565b8151811061052657610525610f6d565b5b602001015160f81c60f81b905060018251038252818460000190805190602001906105529291906108e5565b5061055f8160f81c610649565b92505050919050565b610570610a6c565b6000603460ff1667ffffffffffffffff8111156105905761058f610e21565b5b6040519080825280601f01601f1916602001820160405280156105c25781602001600182028036833780820191505090505b50905060005b603460ff1681101561062b578060f81b8282815181106105eb576105ea610f6d565b5b60200101907effffffffffffffffffffffffffffffffffffffffffffffffffffffffffffff1916908160001a9053508061062490610dd8565b90506105c8565b506040518060200160405280610640836106a1565b81525091505090565b6106516109f5565b60405180604001604052806106658461088f565b600381111561067757610676610bc7565b5b8152602001610685846108ba565b600c81111561069757610696610bc7565b5b8152509050919050565b6060603460ff168251146106ea576040517f08c379a00000000000000000000000000000000000000000000000000000000081526004016106e190610fe8565b60405180910390fd5b6000603460ff1667ffffffffffffffff81111561070a57610709610e21565b5b6040519080825280601f01601f19166020018201604052801561073c5781602001600182028036833780820191505090505b509050600080600090505b845181101561088457600085828151811061076557610764610f6d565b5b602001015160f81c60f81b60f81c90505b60011561082c5760008060d01b8260ff16600160001b79ffffffffffffffffffffffffffffffffffffffffffffffffffff1916901b851679ffffffffffffffffffffffffffffffffffffffffffffffffffff19161415905080156107f45760346001836107e39190611015565b6107ed919061107b565b9150610826565b8160ff16600160001b79ffffffffffffffffffffffffffffffffffffffffffffffffffff1916901b841793505061082c565b50610776565b8060f81b84838151811061084357610842610f6d565b5b60200101907effffffffffffffffffffffffffffffffffffffffffffffffffffffffffffff1916908160001a905350508061087d90610dd8565b9050610747565b508192505050919050565b6000600d8261089e91906110ac565b60ff1660038111156108b3576108b2610bc7565b5b9050919050565b6000600d826108c9919061107b565b60ff16600c8111156108de576108dd610bc7565b5b9050919050565b8280546108f190610d77565b90600052602060002090601f016020900481019282610913576000855561095a565b82601f1061092c57805160ff191683800117855561095a565b8280016001018555821561095a579182015b8281111561095957825182559160200191906001019061093e565b5b5090506109679190610a7f565b5090565b8280548282559060005260206000209081019282156109e4579160200282015b828111156109e35782518260006101000a81548173ffffffffffffffffffffffffffffffffffffffff021916908373ffffffffffffffffffffffffffffffffffffffff1602179055509160200191906001019061098b565b5b5090506109f19190610a7f565b5090565b604051806040016040528060006003811115610a1457610a13610bc7565b5b81526020016000600c811115610a2d57610a2c610bc7565b5b81525090565b6040518060600160405280610a46610a6c565b81526020016060815260200160006002811115610a6657610a65610bc7565b5b81525090565b6040518060200160405280606081525090565b5b80821115610a98576000816000905550600101610a80565b5090565b600080fd5b6000819050919050565b610ab481610aa1565b8114610abf57600080fd5b50565b600081359050610ad181610aab565b92915050565b600060208284031215610aed57610aec610a9c565b5b6000610afb84828501610ac2565b91505092915050565b600081519050919050565b600082825260208201905092915050565b60005b83811015610b3e578082015181840152602081019050610b23565b83811115610b4d576000848401525b50505050565b6000601f19601f8301169050919050565b6000610b6f82610b04565b610b798185610b0f565b9350610b89818560208601610b20565b610b9281610b53565b840191505092915050565b60006020830160008301518482036000860152610bba8282610b64565b9150508091505092915050565b7f4e487b7100000000000000000000000000000000000000000000000000000000600052602160045260246000fd5b60038110610c0757610c06610bc7565b5b50565b6000819050610c1882610bf6565b919050565b6000610c2882610c0a565b9050919050565b610c3881610c1d565b82525050565b60006040820190508181036000830152610c588185610b9d565b9050610c676020830184610c2f565b9392505050565b60048110610c7f57610c7e610bc7565b5b50565b6000819050610c9082610c6e565b919050565b6000610ca082610c82565b9050919050565b610cb081610c95565b82525050565b600d8110610cc757610cc6610bc7565b5b50565b6000819050610cd882610cb6565b919050565b6000610ce882610cca565b9050919050565b610cf881610cdd565b82525050565b604082016000820151610d146000850182610ca7565b506020820151610d276020850182610cef565b50505050565b6000604082019050610d426000830184610cfe565b92915050565b7f4e487b7100000000000000000000000000000000000000000000000000000000600052602260045260246000fd5b60006002820490506001821680610d8f57607f821691505b60208210811415610da357610da2610d48565b5b50919050565b7f4e487b7100000000000000000000000000000000000000000000000000000000600052601160045260246000fd5b6000610de382610aa1565b91507fffffffffffffffffffffffffffffffffffffffffffffffffffffffffffffffff821415610e1657610e15610da9565b5b600182019050919050565b7f4e487b7100000000000000000000000000000000000000000000000000000000600052604160045260246000fd5b600082825260208201905092915050565b7f47616d65206973206e6f742070656e64696e6700000000000000000000000000600082015250565b6000610e97601383610e50565b9150610ea282610e61565b602082019050919050565b60006020820190508181036000830152610ec681610e8a565b9050919050565b7f4465636b20697320656d70747900000000000000000000000000000000000000600082015250565b6000610f03600d83610e50565b9150610f0e82610ecd565b602082019050919050565b60006020820190508181036000830152610f3281610ef6565b9050919050565b6000610f4482610aa1565b9150610f4f83610aa1565b925082821015610f6257610f61610da9565b5b828203905092915050565b7f4e487b7100000000000000000000000000000000000000000000000000000000600052603260045260246000fd5b7f496e76616c69642072616e646f6d206279746573206c656e6774680000000000600082015250565b6000610fd2601b83610e50565b9150610fdd82610f9c565b602082019050919050565b6000602082019050818103600083015261100181610fc5565b9050919050565b600060ff82169050919050565b600061102082611008565b915061102b83611008565b92508260ff0382111561104157611040610da9565b5b828201905092915050565b7f4e487b7100000000000000000000000000000000000000000000000000000000600052601260045260246000fd5b600061108682611008565b915061109183611008565b9250826110a1576110a061104c565b5b828206905092915050565b60006110b782611008565b91506110c283611008565b9250826110d2576110d161104c565b5b82820490509291505056fea2646970667358221220cdf0beb1b40f538d234854b85956193566d1579f40fe15f16d80909bfe76ac7164736f6c63430008090033",
  "linkReferences": {},
  "deployedLinkReferences": {}
}